:100000000C9446000C9465000C9465000C946500FB
:100010000C9465000C9465000C9465000C946500CC
:100020000C9465000C9465000C9465000C946500BC
:100030000C9465000C9465000C94050E0C946500FE
:100040000C9465000C9465000C9412120C946500DD
:100050000C9465000C9465000C9465000C9465008C
:100060000C9465000C9465000C9465000C9465007C
:100070000C9465000C9465000C94B4110C9465000C
:100080000C9465000C9465000C94650011241FBE4F
:10009000CFEFD0E1DEBFCDBF15E0A0E0B1E0E4E3FB
:1000A000FBE300E00BBF02C007900D92A83EB10732
:1000B000D9F710E1A8EEB5E001C01D92A436B10752
:1000C000E1F70E9475010C94981D0C940000DF93D9
:1000D000CF9300D000D00F92CDB7DEB79C838B8337
:1000E0000EC01A82198205C089819A8101969A836D
:1000F000898389819A8127E180379207A8F31D823D
:100100008B819C81009711F081E08D838B819C8194
:1001100001979C838B832D81222319F70F900F90D9
:100120000F900F900F90CF91DF9108950F931F9331
:10013000DF93CF9300D00F92CDB7DEB79B838A8336
:10014000E0911801F091190180E091E022E231E0A4
:10015000B901099500912001109121010E94A50D7E
:10016000282F30E040E050E080E091E0BA01A901A2
:10017000F8010995E0911A01F0911B0180E091E0EE
:10018000099589838981883421F483E00E94990C40
:100190001DC08981813421F481E00E94990C16C030
:1001A0008981823421F483E00E941A0D0FC0898175
:1001B000833429F483E061E00E94BD0D07C089818A
:1001C000843421F483E065E00E94BD0D6AE070E0B4
:1001D00080E090E00E94540DB3CFDF93CF9300D026
:1001E00000D000D0CDB7DEB79E838D8380914007CD
:1001F000909141070E94BC10E0911801F091190103
:1002000080E091E023E331E0B9010995E091560BDC
:10021000F091570B82E497E026E431E060E040E0A3
:100220000995E091520BF091530B82E497E0099508
:1002300080914007909141070E94051162E070E0B3
:1002400080E090E00E94540DD1CFDF93CF9300D097
:10025000CDB7DEB79A83898380914007909141079B
:100260000E94BC10E0911801F091190180E091E02A
:1002700024E531E0B9010995E091560BF091570B57
:1002800082E497E027E631E060E040E00995E09104
:10029000520BF091530B82E497E00995809140074F
:1002A000909141070E94051164E170E080E090E0C8
:1002B0000E94540DD1CFDF93CF9300D0CDB7DEB7DE
:1002C0009A838983E0911801F091190180E091E00F
:1002D00029E731E0B901099584E690E00E946700C2
:1002E0000F900F90CF91DF910895DF93CF9300D0BF
:1002F0000F92CDB7DEB780E091E00E94A01382E4B8
:1003000097E00E94191BE091520BF091530B82E48D
:1003100097E00995E4E3F0E08081E4E3F0E08FEF1B
:100320008083E5E3F0E08FEF8083E4E6F0E0808116
:10033000E4E6F0E08FEF8083A5E6B0E0E5E6F0E0EC
:10034000808180618C938BE591E00E94670F86E944
:1003500090E020EC36E0B90140E850E021E00E9456
:100360003A0C8DEE90E02CE53BE0B90140E850E01E
:1003700023E00E943A0C85E291E02CED3BE0B901CC
:1003800040E850E023E00E943A0C81E090E00E94B7
:1003900027109093410780934007E0911A01F09154
:1003A0001B0180E091E0099589838981833569F497
:1003B000E0911801F091190180E091E020E831E02E
:1003C000B90109950E948A0FE8CFE0911801F091D8
:1003D000190180E091E020E931E0B9010995DDCF14
:1003E000DF93CF9300D000D0CDB7DEB780915C0C07
:1003F00090915D0C9A8389831C821B8278C0E9816D
:10040000FA8124813581E981FA8186819781280FDB
:10041000391FE981FA810190F081E02D8481958175
:100420002817390709F058C0E981FA81A081B18104
:10043000E981FA818481958115969C938E93149716
:10044000E981FA81A081B181E981FA810190F0818D
:10045000E02D26813781E981FA8186819781820F9B
:10046000931F17969C938E931697E981FA81A28128
:10047000B381E981FA81808191818D939C93E98197
:10048000FA81A081B181E981FA81828193811396F9
:100490009C938E93129780916C0C90916D0CE981D6
:1004A000FA819183808389819A8190936D0C8093E6
:1004B0006C0C8091720C9091730C01969093730C5C
:1004C0008093720C8091620C9091630C01979093D1
:1004D000630C8093620C06C0E981FA81808191816E
:1004E0009A8389838B819C8101969C838B838091E5
:1004F000620C9091630C9C01215030408B819C8157
:100500008217930708F47BCF0F900F900F900F90F6
:10051000CF91DF910895DF93CF9300D0CDB7DEB7B1
:1005200084E69CE090935D0C80935C0C84E69CE0F8
:1005300090935F0C80935E0C8CE59CE09093650C2F
:100540008093640C8CE59CE09093670C8093660C20
:1005500081E090E09093630C8093620C1092610CA8
:100560001092600C1092690C1092680C80E490E07C
:1005700090936B0C80936A0C8DE390E09093730CD6
:100580008093720C82E090E09A8389833AC049811B
:100590005A8189819A810196880F991F880F991F26
:1005A000880F991F9C01245A334FCA01880F991F45
:1005B000880F991F880F991FFC01E45AF34F31836C
:1005C000208389819A81880F991F880F991F880F2E
:1005D000991FFC01EE59F34F1182108289819A8193
:1005E000880F991F0196880F991F880F991FFC018A
:1005F000E45AF34F1182108289819A8101969A837D
:10060000898389819A818F33910508F210925B0E5C
:1006100010925A0E1092590E1092580E0F900F9081
:10062000CF91DF910895DF93CF93CDB7DEB72B97AE
:100630000FB6F894DEBF0FBECDBF998788871F82A3
:100640001E8280915C0C90915D0C9A8389838885D1
:1006500099850296998788871F821E82C1C0E98189
:10066000FA81868197819C01220F331F220F331F4D
:10067000220F331F888599852817390708F4A5C0EC
:10068000888599859695879596958795969587956A
:10069000282F8885998587709070079696958795FD
:1006A0009695879596958795820F8B832091600C00
:1006B0003091610C8B81882F90E0820F931F909373
:1006C000610C8093600CE981FA8184819581880FA7
:1006D000991F880F991F880F991F9D838C832CE584
:1006E0003EE08C819D81F901E80FF91F8B81882FF5
:1006F00090E0918380838C819D8102969D838C8381
:100700008B81282F30E0E981FA8186819781281733
:100710003907B9F5E981FA81A281B381E981FA81CA
:10072000808191818D939C93E981FA81A081B1812F
:10073000E981FA818281938113969C938E9312971B
:1007400080916C0C90916D0CE981FA81918380838A
:1007500089819A8190936D0C80936C0C8091720CBE
:100760009091730C01969093730C8093720C80910E
:10077000620C9091630C01979093630C8093620CD0
:100780001CC0E981FA81248135818B81882F90E01A
:10079000820F931FE981FA8195838483E981FA812D
:1007A000268137818B81882F90E0A901481B590B46
:1007B000CA01E981FA81978386838C819D819C019E
:1007C000245A314F3B872A8717C0E981FA818081FB
:1007D00091819A8389838E819F8101969F838E83E5
:1007E0002091620C3091630C8E819F818217930758
:1007F00008F435CF1B861A868A859B852B960FB603
:10080000F894DEBF0FBECDBFCF91DF910895DF9387
:10081000CF93CDB7DEB72C970FB6F894DEBF0FBEDF
:10082000CDBF9C878B878B859C85FC01329780810F
:10083000918198878F834B855C852CE53EE08EEF18
:100840009FEF821B930B840F951F96958795969526
:100850008795969587959E838D8380915C0C90916A
:100860005D0C9C838B831A8619867BC0EB81FC818F
:10087000248135818D819E818217930708F066C09F
:10088000E0916C0CF0916D0C808191819A83898349
:10089000E0916C0CF0916D0C8D819E819583848329
:1008A000E0916C0CF0916D0C8F8198859783868315
:1008B0002091600C3091610C8F819885A901481BB3
:1008C000590BCA019093610C8093600CE0916C0C01
:1008D000F0916D0C8B819C8191838083A0916C0C35
:1008E000B0916D0CEB81FC818281938113969C9376
:1008F0008E931297EB81FC810280F381E02D809131
:100900006C0C90916D0C9183808380916C0C909114
:100910006D0CEB81FC81938382838091620C9091BA
:10092000630C01969093630C8093620C89819A8189
:1009300090936D0C80936C0C8091720C9091730C61
:1009400001979093730C8093720C15C0EB81FC811E
:10095000808191819C838B8389859A8501969A8772
:1009600089872091620C3091630C89859A85821762
:10097000930708F47BCF2C960FB6F894DEBF0FBE1A
:10098000CDBFCF91DF910895DF93CF93CDB7DEB781
:100990008091600C9091610C880F991F880F991FAE
:1009A000880F991FCF91DF910895DF93CF93CDB733
:1009B000DEB7AEE4B0E0EEE4F0E0808182608C93DC
:1009C000ECE4F0E08FEF9FEE91838083AFE5B0E041
:1009D000EFE5F0E080818F778C93CF91DF910895E0
:1009E000DF93CF9300D000D000D0CDB7DEB79A838D
:1009F00089837C836B835E834D838D819E819C0183
:100A0000215030408B819C81820F931F9C838B836C
:100A100089819A81EB81FC8180838B819C81019704
:100A20009C838B8389819A81892F9927EB81FC8113
:100A300080838B819C8101979C838B83EB81FC81DC
:100A400010828B819C8101979C838B83EB81FC813D
:100A500010828B819C8101979C838B83EB81FC812D
:100A600010828B819C8101979C838B83EB81FC811D
:100A700010828B819C8101979C838B83EB81FC810D
:100A800010828B819C8101979C838B83EB81FC81FD
:100A900080E880838B819C8101979C838B83EB8191
:100AA000FC8110828B819C8101979C838B83EB81DD
:100AB000FC8110828B819C8101979C838B83EB81CD
:100AC000FC8110828B819C8101979C838B83EB81BD
:100AD000FC8110828B819C8101979C838B83EB81AD
:100AE000FC8110828B819C8101979C838B83EB819D
:100AF000FC8110828B819C8101979C838B83EB818D
:100B0000FC8110828B819C8101979C838B83EB817C
:100B1000FC8110828B819C8101979C838B83EB816C
:100B2000FC8110828B819C8101979C838B83EB815C
:100B3000FC8110828B819C8101979C838B83EB814C
:100B4000FC8110828B819C8101979C838B83EB813C
:100B5000FC8110828B819C8101979C838B83EB812C
:100B6000FC8110828B819C8101979C838B83EB811C
:100B7000FC8110828B819C8101979C838B83EB810C
:100B8000FC8110828B819C8101979C838B83EB81FC
:100B9000FC8110828B819C8101979C838B83EB81EC
:100BA000FC8110828B819C8101979C838B83EB81DC
:100BB000FC8110828B819C8101979C838B83EB81CC
:100BC000FC8110828B819C8101979C838B83EB81BC
:100BD000FC8110828B819C8101979C838B83EB81AC
:100BE000FC8110828B819C8101979C838B83EB819C
:100BF000FC8110828B819C8101979C838B83EB818C
:100C0000FC8110828B819C8101979C838B83EB817B
:100C1000FC8110828B819C8101979C838B83EB816B
:100C2000FC8110828B819C8101979C838B83EB815B
:100C3000FC8110828B819C8101979C838B83EB814B
:100C4000FC8110828B819C8101979C838B83EB813B
:100C5000FC8110828B819C8101979C838B838B818B
:100C60009C8126960FB6F894DEBF0FBECDBFCF9104
:100C7000DF910895DF93CF930F92CDB7DEB719823E
:100C80000DC08981882F90E0880F991FFC01E851E1
:100C9000FA4F1182108289818F5F898389818B301D
:100CA00080F30F90CF91DF910895DF93CF930F9250
:100CB000CDB7DEB719820AC08981882F90E0FC0188
:100CC000E250FA4F108289818F5F8983898188235E
:100CD00099F30F90CF91DF910895DF93CF930F9207
:100CE000CDB7DEB719821CC08981282F30E0C90139
:100CF000880F991F820F931FFC01EF5FF94F11823C
:100D000010828981282F30E0C901880F991F820F36
:100D1000931FFC01ED5FF94F108289818F5F8983FA
:100D20008981873008F30F90CF91DF910895DF9389
:100D3000CF93CDB7DEB787E080931C0687E0809322
:100D40001D0689E196E0909328068093270689E1A5
:100D500096E0909326068093250686E196E0909390
:100D600024068093230689E196E0909317068093EA
:100D700016061092180610921F0610922006109266
:100D800021061092220687E080932F0687E0809349
:100D900030068CE296E090933B0680933A068CE214
:100DA00096E090933906809338068FEF9FEFAFEF70
:100DB000BFEF8093320690933306A0933406B0932E
:100DC000350689E296E090933706809336068CE2EA
:100DD00096E090932A068093290610922B06CF91D5
:100DE000DF910895DF93CF93CDB7DEB70E943A0627
:100DF0000E9455060E946D060E949706CF91DF91D2
:100E00000895DF93CF9300D000D0CDB7DEB78091A7
:100E10000006882F90E0FC01ED54FE4F80818B830B
:100E20008B81882F90E0FC01E150FA4F8081882F60
:100E300090E0FC01ED54FE4F80818A838B81882FE6
:100E400090E09C01220F331F220F331F220F331F0C
:100E50008A81882F90E0820F931FFC01E250FA4FA5
:100E60008081882F90E0FC01ED54FE4F80818983C2
:100E70008B81882F90E09C01220F331F220F331F9C
:100E8000220F331F8A81882F90E0820F931F880FD3
:100E9000991F880F991F880F991F982F8981890F93
:100EA0008C838C818093B3028C810F900F900F9074
:100EB0000F90CF91DF910895DF93CF9300D000D0B2
:100EC00000D0CDB7DEB789838981869586958695D2
:100ED000482F50E0882F90E0FC01E250FA4F6081EB
:100EE0008981882F90E09C012770307081E090E02C
:100EF000022E02C0880F991F0A94E2F7809586237C
:100F0000FA01E250FA4F808389818695869586950D
:100F1000882F90E0FC01E250FA4F8081882309F08D
:100F20005DC089818295869586958370282F30E0F3
:100F30003C832B83882F90E0FC01E150FA4F3081F5
:100F40003A838981882F90E08F7390709E838D8380
:100F50008D819E81992334F42D813E81295F3F4FFD
:100F60003E832D838D819E81959587959595879557
:100F7000959587959C0181E090E0022E02C0880F34
:100F8000991F0A94E2F780953A818323EB81FC81D3
:100F9000E150FA4F8083898182958695869583708A
:100FA000882F90E0FC01E150FA4F80818823B1F452
:100FB00089818295869586958370282F30E081E01F
:100FC00090E0022E02C0880F991F0A94E2F7982F32
:100FD00090958091000689238093000626960FB68F
:100FE000F894DEBF0FBECDBFCF91DF910895DF93A0
:100FF000CF9300D000D000D0CDB7DEB789838981F0
:10100000869586958695482F50E0882F90E0FC01C4
:10101000E250FA4F60818981882F90E09C0127700F
:10102000307081E090E002C0880F991F2A95E2F7A6
:10103000862BFA01E250FA4F80838981829586954A
:1010400086958370282F30E03C832B83882F90E097
:10105000FC01E150FA4F30813A838981882F90E07A
:101060008F7390709E838D838D819E81992334F43C
:101070002D813E81295F3F4F3E832D838D819E814F
:101080009595879595958795959587959C0181E090
:1010900090E002C0880F991F2A95E2F73A81832BCE
:1010A000EB81FC81E150FA4F80838981829586959E
:1010B00086958370282F30E081E090E0022E02C0F8
:1010C000880F991F0A94E2F7982F80910006892BC8
:1010D0008093000626960FB6F894DEBF0FBECDBFF4
:1010E000CF91DF910895DF93CF9300D00F92CDB7CA
:1010F000DEB79B838A83198220C08981882F90E084
:10110000880F991FFC01E851FA4F80819181009767
:1011100089F48981882F90E0880F991FFC01E8519C
:10112000FA4F8A819B8191838083EA81FB81898147
:10113000858306C089818F5F898389818B30E8F23E
:1011400089810F900F900F90CF91DF910895DF93D9
:10115000CF9300D000D00F92CDB7DEB79D838C83A4
:101160001A821982EC81FD8182818B838B81282FE9
:1011700030E0C901880F991F820F931FFC01EF5FB8
:10118000F94F808191819A83898389819A8100971F
:10119000E1F48B81282F30E0C901880F991F820F5D
:1011A000931FFC01EF5FF94F8C819D8191838083B8
:1011B000EC81FD818C819D8195878487EC81FD8107
:1011C0008C819D81978786871DC0EC81FD818981F7
:1011D0009A8195878487E981FA8186859785EC8154
:1011E000FD8197878687E981FA810684F785E02D5E
:1011F0008C819D8195878487E981FA818C819D818D
:10120000978786878B81282F30E0C901880F991F27
:10121000820F931FFC01ED5FF94F8081482F4F5FD4
:10122000C901880F991F820F931FFC01ED5FF94FD1
:1012300040838B81282F30E0C901880F991F820FCE
:10124000931F8F5F994FEC81FD81938782878B81FC
:101250000E94F7070F900F900F900F900F90CF9173
:10126000DF910895DF93CF9300D000D0CDB7DEB7E4
:101270009C838B83EB81FC8182818A838A81282FE6
:1012800030E0C901880F991F820F931FFC01ED5FA9
:10129000F94F8081898389818130E9F48A81282FFF
:1012A00030E0C901880F991F820F931FFC01EF5F87
:1012B000F94F118210828A810E945C078A81282F4F
:1012C00030E0C901880F991F820F931FFC01ED5F69
:1012D000F94F108244C08981823008F440C08A816D
:1012E000282F30E0EB81FC8144855585C901880FAA
:1012F000991F820F931FFC01EF5FF94F51834083C9
:10130000EB81FC81A685B785EB81FC818485958581
:101310001D969C938E931C97EB81FC81A485B585CB
:10132000EB81FC81868597851F969C938E931E97F3
:101330008A81282F30E0C901880F991F820F931FDF
:10134000FC01ED5FF94F8081482F4150C901880FA2
:10135000991F820F931FFC01ED5FF94F40830F909F
:101360000F900F900F90CF91DF910895DF93CF935F
:1013700000D000D000D0CDB7DEB79E838D8386E14C
:1013800096E09A838983E981FA81808191819C83A7
:101390008B83ED81FE818B819C8197878687ED8190
:1013A000FE8189819A8193878287EB81FC81848584
:1013B0009585ED81FE8195878487EB81FC8104848E
:1013C000F585E02D8D819E8197878687EB81FC8155
:1013D0008D819E8195878487E981FA8182818F5FE3
:1013E000E981FA81828326960FB6F894DEBF0FBE9C
:1013F000CDBFCF91DF910895DF93CF9300D0CDB7CC
:10140000DEB79A838983E981FA81A685B785E98168
:10141000FA81848595851D969C938E931C97E9810E
:10142000FA81A485B585E981FA81868597851F961D
:101430009C938E931E978091180681508093180676
:101440000F900F90CF91DF910895EF92FF920F933D
:101450001F93DF93CF93CDB7DEB72A970FB6F894DB
:10146000DEBF0FBECDBF9A878987E985FA852681C1
:1014700037814085518580915C1090915D10A091DD
:101480005E10B0915F10820F931FA41FB51F8B8356
:101490009C83AD83BE8389E296E09A838983E98148
:1014A000FA818081918198878F83E981FA81828195
:1014B0008F5FE981FA81828320915C1030915D1009
:1014C00040915E1050915F108B819C81AD81BE81F7
:1014D00082179307A407B507D0F522C0EF81F885DE
:1014E000268137814085518580915C1090915D10F7
:1014F000A0915E10B0915F1079018A01E81AF90A93
:101500000A0B1B0BD801C701EF81F88586839783EF
:10151000A087B187EF81F8858485958598878F832B
:10152000EF81F88583818730C9F6E985FA85868160
:101530009781A085B1858B839C83AD83BE831092F8
:101540005C1010925D1010925E1010925F10E98195
:10155000FA818081918198878F8306C0EF81F88519
:101560008485958598878F83EF81F88526813781DB
:10157000408551858B819C81AD81BE818217930707
:10158000A407B50758F7E985FA858F81988595876F
:101590008487EF81F88586859785E985FA85978721
:1015A0008687EF81F8850684F785E02D89859A8501
:1015B00095878487EF81F88589859A8597878687BF
:1015C000E981FA810190F081E02D26813781408503
:1015D00051858B819C81AD81BE8182179307A407C1
:1015E000B50730F4E981FA8189859A8591838083F2
:1015F000E985FA858B819C81AD81BE818683978345
:10160000A087B187E985FA8589E296E0938782878A
:101610002A960FB6F894DEBF0FBECDBFCF91DF91F3
:101620001F910F91FF90EF900895DF93CF9300D01B
:10163000CDB7DEB79A838983E981FA81A685B7851C
:10164000E981FA81848595851D969C938E931C97DC
:10165000E981FA81A485B585E981FA818685978536
:101660001F969C938E931E9780912B06815080939A
:101670002B060F900F90CF91DF910895DF93CF93BA
:1016800000D0CDB7DEB79A838983209129063091A7
:101690002A0689819A812817390741F4E981FA815C
:1016A0008485958590932A06809329060F900F9044
:1016B000CF91DF910895DF93CF9300D0CDB7DEB700
:1016C0009A83898389819A8190932A068093290637
:1016D0000F900F90CF91DF910895DF93CF9300D0BB
:1016E000CDB7DEB79A8389838091290690912A0627
:1016F000E981FA81918380830F900F90CF91DF91E0
:101700000895DF93CF9300D00F92CDB7DEB78983D2
:101710007B836A838981882F90E0880F991FFC0161
:10172000E851FA4F80819181EA81FB819183808326
:101730000F900F900F90CF91DF910895DF93CF938B
:1017400000D0CDB7DEB79A8389838091B302282F6A
:1017500030E0C901880F991F820F931FFC01EF5FD2
:10176000F94F80819181E981FA81918380830F9083
:101770000F90CF91DF910895DF93CF93CDB7DEB770
:101780008091B302282F30E0C901880F991F820F82
:10179000931FFC01EF5FF94F80819181909363105B
:1017A00080936210CF91DF910895DF93CF93CDB7EF
:1017B000DEB78091B302282F30E0C901880F991F4E
:1017C000820F931FFC01ED5FF94F8081CF91DF9174
:1017D0000895DF93CF93CDB7DEB7E0916010F0911D
:1017E0006110848595859093631080936210CF91EA
:1017F000DF910895DF93CF93CDB7DEB70E94010745
:101800000E94BC0BCF91DF910895DF93CF9300D05E
:10181000CDB7DEB79A8389838091BC069091BD06CF
:101820000097D1F3E091BC06F091BD0689819A81C1
:101830000995F2CFDF93CF9300D00F92CDB7DEB7EB
:101840009B838A8385E09CE02CE336E0B90140E885
:1018500050E026E00E943A0C89838A819B81909314
:10186000BD068093BC0689810F900F900F90CF9199
:10187000DF910895DF93CF93CDB7DEB72A970FB6E8
:10188000F894DEBF0FBECDBF9D838C837F836E83B4
:10189000598748872A871B821A8219828C819D81E9
:1018A0002E813F8148855985B9010E94F0049F83AC
:1018B0008E8300905F000F92AFE5B0E0EFE5F0E0BF
:1018C00080818F778C9380E190E00E9413039B834B
:1018D0008A838A819B810097F9F08A819B810E948B
:1018E00073088983EA81FB8189818583EA81FB8191
:1018F0008A858283EA81FB8181E08383EA81FB819F
:1019000086E08483EA81FB818E819F81918380833D
:101910008A819B810E94A7080F9000925F008981B5
:101920002A960FB6F894DEBF0FBECDBFCF91DF91E0
:101930000895DF93CF9300D00F92CDB7DEB78B839E
:1019400000905F000F92AFE5B0E0EFE5F0E080813E
:101950008F778C938B819E012F5F3F4FB9010E943F
:10196000810BE981FA818381883009F45AC0898129
:101970009A819C0180916210909163102817390719
:10198000D9F4E981FA818381813009F048C0E98185
:10199000FA8184E08383E981FA8181E0848389810B
:1019A0009A810E94320989819A810E94B6090E9417
:1019B00001070E94BC0B33C0E981FA818381813029
:1019C00099F4E981FA8184E08383E981FA8181E0F5
:1019D000848389819A810E94320989819A810E9437
:1019E000B6090E94FA0B1BC0E981FA81838182301B
:1019F000B1F4E981FA8184E08383E981FA8182E0AC
:101A0000848389819A810E94150B89819A810E9421
:101A10003E0B89819A810E94B6090E94FA0B0E94AE
:101A20009B1B0F9000925F000F900F900F90CF9133
:101A3000DF910895DF93CF9300D00F92CDB7DEB73B
:101A40008B8300905F000F92AFE5B0E0EFE5F0E030
:101A500080818F778C938B819E012F5F3F4FB901DF
:101A60000E94810BE981FA8183818430A1F4E981AC
:101A7000FA8181E08383E981FA8184E0848389812A
:101A80009A810E94FC0989819A810E94A7080E947C
:101A9000FA0B0E949B1B0F9000925F000F900F901B
:101AA0000F90CF91DF910895DF93CF9300D000D0B6
:101AB000CDB7DEB769837A838B839C8389819A81D2
:101AC000AB81BC8182309105A105B105B8F10090D0
:101AD0005F000F92AFE5B0E0EFE5F0E080818F7737
:101AE0008C93E0916210F091631089819A81AB81AF
:101AF000BC8186839783A087B18780916210909183
:101B000063100E94320980916210909163100E94CC
:101B1000250AE0916210F091631081E08483E091E6
:101B20006210F091631082E083830E9401070E949B
:101B3000BC0B0F9000925F000E949B1B0F900F90B8
:101B40000F900F90CF91DF910895DF93CF93CDB792
:101B5000DEB7E0916210F09163108581CF91DF9143
:101B60000895DF93CF93CDB7DEB7E0916210F09187
:101B700063108281CF91DF910895DF93CF9300D0DE
:101B800000D0CDB7DEB78B836C8300905F000F92DF
:101B9000AFE5B0E0EFE5F0E080818F778C938B814B
:101BA0009E012F5F3F4FB9010E94810BE981FA81AD
:101BB00092818C819817F9F0E981FA8183818830CC
:101BC000D1F0E981FA818381813089F489819A8118
:101BD0000E943209E981FA818C81828389819A810C
:101BE0000E94A7080E9401070E94BC0B04C0E98163
:101BF000FA818C8182830F9000925F000F900F908A
:101C00000F900F90CF91DF9108951F920F920FB612
:101C10000F9200905B000F9211242F933F934F93EC
:101C20005F936F937F938F939F93AF93BF93EF9344
:101C3000FF93DF93CF9300D000D0CDB7DEB7809174
:101C40005C1090915D10A0915E10B0915F100196B4
:101C5000A11DB11D80935C1090935D10A0935E1048
:101C6000B0935F10A5E3B0E0E5E3F0E080818095FC
:101C70008C938091B402813009F055C00E94E90B29
:101C8000CE0103960E946D0BEB81FC81268137818A
:101C90004085518580915C1090915D10A0915E10FF
:101CA000B0915F10281739074A075B07E1F520C09C
:101CB000EB81FC811682178210861186EB81FC81F4
:101CC000848595859A8389838B819C810E94150BDD
:101CD000EB81FC8181E08383EB81FC8182E0848362
:101CE0008B819C810E94A70889819A819C838B8328
:101CF000EB81FC81268137814085518580915C1084
:101D000090915D10A0915E10B0915F102817390777
:101D10004A075B0769F28B819C810E945B0B0E94E2
:101D200001070E94BC0BE0916210F0916310828168
:101D3000863049F48091B5029091B6020196909355
:101D4000B6028093B5028091B7029091B8020196D5
:101D50009093B8028093B7028091B7029091B80235
:101D6000883C910560F081E090E09093B802809308
:101D7000B70281E090E09093B6028093B502AFE5A0
:101D8000B0E0EFE5F0E080818F778C93ECE4F0E059
:101D90008FEF9FEE91838083AFE5B0E0EFE5F0E059
:101DA000808180688C930E949B1B0F900F900F90F6
:101DB0000F90CF91DF91FF91EF91BF91AF919F91E4
:101DC0008F917F916F915F914F913F912F910F90E4
:101DD00000925B000F900FBE0F901F901895EF922E
:101DE000FF920F931F93DF93CF93CDB7DEB7809110
:101DF000B5029091B602CC01A0E0B0E0BC01CD01EB
:101E00000E94D41C7B018C018091B7029091B80292
:101E1000CC01A0E0B0E0BC01CD010E94D41C9B012C
:101E2000AC01C801B7010E946C1CDC01CB019C0114
:101E3000AD0168E070E080E89FE30E94071CDC01D0
:101E4000CB018093B9029093BA02A093BB02B093E6
:101E5000BC028091B9029091BA02A091BB02B091EC
:101E6000BC02BC01CD01CF91DF911F910F91FF907A
:101E7000EF900895DF93CF93CDB7DEB700905F006A
:101E80000F92AFE5B0E0EFE5F0E080818F778C93C3
:101E90001092B4020F9000925F00CF91DF910895ED
:101EA000DF93CF93CDB7DEB700905F000F92AFE521
:101EB000B0E0EFE5F0E080818F778C9381E0809354
:101EC000B4020F9000925F00CF91DF910895DF93ED
:101ED000CF9300D0CDB7DEB79A838983AFE5B0E06A
:101EE000EFE5F0E080818F778C930E948B020E9457
:101EF000F20689819A810E941A0C10925C1010924D
:101F00005D1010925E1010925F100F900F90CF91A5
:101F1000DF910895DF93CF93CDB7DEB70E9401071D
:101F200082E690E10E949E0B809162109091631076
:101F300090936110809360100E94D504AFE5B0E0EB
:101F4000EFE5F0E0808180688C93A7E5B0E0E7E5FD
:101F5000F0E0808184608C930E949B1BCF91DF9185
:101F60000895DF93CF9300D000D0CDB7DEB79A832A
:101F700089837C836B83EB81FC8186859785E981EE
:101F8000FA81978786878B819C81E981FA81958781
:101F90008487EB81FC810684F785E02D89819A8115
:101FA00095878487EB81FC8189819A8197878687D1
:101FB000EB81FC81808991890196EB81FC81918B79
:101FC000808B0F900F900F900F90CF91DF9108951D
:101FD000DF93CF9300D000D0CDB7DEB79A8389834B
:101FE0007C836B83EB81FC8180899189009741F12F
:101FF000EB81FC8184859585E981FA8191838083D9
:10200000EB81FC810484F585E02D0484F585E02DC9
:102010008B819C8197878687EB81FC810484F58581
:10202000E02D84859585EB81FC8195878487EB8104
:10203000FC81808991890197EB81FC81918B808B58
:102040000F900F900F900F90CF91DF910895DF9335
:10205000CF9300D000D0CDB7DEB79C838B831A829C
:10206000198200905F000F92AFE5B0E0EFE5F0E07D
:1020700080818F778C9384E190E00E9413039A8390
:10208000898389819A810097B1F089819A81E98158
:10209000FA819587848789819A81E981FA81978776
:1020A0008687E981FA81118A108AE981FA818B8118
:1020B0009C81938B828B0F9000925F0089819A8123
:1020C0000F900F900F900F90CF91DF910895DF93B5
:1020D000CF9300D0CDB7DEB79A83898300905F009D
:1020E0000F92AFE5B0E0EFE5F0E080818F778C9361
:1020F00089819A81009721F089819A810E94070441
:102100000F9000925F000F900F90CF91DF91089594
:10211000DF93CF9300D000D0CDB7DEB79A83898309
:102120007C836B8300905F000F92AFE5B0E0EFE53A
:10213000F0E080818F778C93E981FA818B819C819B
:10214000938B828B89819A81E981FA819587848733
:1021500089819A81E981FA8197878687E981FA8165
:10216000118A108A0F9000925F000F900F900F90CD
:102170000F90CF91DF910895DF93CF9300D0CDB72B
:10218000DEB79A83898300905F000F92AFE5B0E0DD
:10219000EFE5F0E080818F778C93E0916210F09111
:1021A000631088E08383E0916210F091631081E016
:1021B0008483E981FA81828993890197E981FA818F
:1021C000938B828BE981FA81828993899923ACF47C
:1021D00080916210909163100E9432098091621088
:1021E0009091631029813A81B9010E94B10F0E9438
:1021F00001070E94BC0B0E949B1B0F9000925F0086
:102200000F900F90CF91DF910895DF93CF9300D07F
:1022100000D0CDB7DEB79C838B831A8219820090E1
:102220005F000F92AFE5B0E0EFE5F0E080818F77DF
:102230008C93E0916210F091631081E08383E091D0
:102240006210F091631088E08483EB81FC818289C5
:1022500093890196EB81FC81938B828BEB81FC81CE
:1022600082899389181619068CF02B813C81CE0146
:102270000196B9010E94E80F89819A810E94A708FE
:102280000E9401070E94BC0B0E949B1B0F900092B2
:102290005F000F900F900F900F90CF91DF910895F6
:1022A000DF93CF9300D00F92CDB7DEB79A838983A7
:1022B0006B83E981FA810184F285E02D8081882F8A
:1022C00090E0807290700097A1F3E981FA81078015
:1022D000F085E02D8B8180830F900F900F90CF9130
:1022E000DF910895DF93CF9300D000D0CDB7DEB754
:1022F0009A8389837C836B8311C0E981FA81268963
:102300003789EB81FC8140818B819C8101969C8384
:102310008B8389819A81642FF9010995EB81FC8176
:102320008081882351F70F900F900F900F90CF91DD
:10233000DF910895DF93CF9300D0CDB7DEB79A83B6
:102340008983E981FA810184F285E02D80818823E7
:10235000C4F7E981FA810780F085E02D80810F9034
:102360000F90CF91DF9108951F920F920FB60F92A9
:1023700000905B000F9211242F933F934F935F9334
:102380006F937F938F939F93AF93BF93EF93FF933D
:10239000DF93CF930F92CDB7DEB7E091BE06F091F9
:1023A000BF060780F085E02D80818983E091BE061D
:1023B000F091BF0693898981981769F4E091BE0670
:1023C000F091BF06048CF58DE02D8091BE069091B2
:1023D000BF06099510C0A091BE06B091BF065496E5
:1023E000ED91FC91559789818083CF010196559697
:1023F0009C938E9354970F90CF91DF91FF91EF9123
:10240000BF91AF919F918F917F916F915F914F910C
:102410003F912F910F9000925B000F900FBE0F9095
:102420001F9018951F920F920FB60F9200905B00AD
:102430000F9211242F933F934F935F936F937F934A
:102440008F939F93AF93BF93EF93FF93DF93CF93BC
:102450000F92CDB7DEB7E091BE06F091BF060780C0
:10246000F085E02D80818983E091BE06F091BF0662
:1024700093898981981769F4E091BE06F091BF06AF
:10248000048CF58DE02D8091BE069091BF060995D4
:1024900010C0A091BE06B091BF065496ED91FC917C
:1024A000559789818083CF01019655969C938E9391
:1024B00054970F90CF91DF91FF91EF91BF91AF9122
:1024C0009F918F917F916F915F914F913F912F914C
:1024D0000F9000925B000F900FBE0F901F90189509
:1024E0000F931F93DF93CF93CDB7DEB76C970FB6E3
:1024F000F894DEBF0FBECDBF988F8F8B498F5A8F58
:102500006B8F7C8F898D9A8DAB8DBC8D2AE030E0EE
:1025100040E050E0BC01CD010E94761DDA01C90106
:102520008A839B83AC83BD8381E0898381E1FE0143
:102530003696DF01982F1D929A95E9F715C08A818A
:102540009B81AC81BD812AE030E040E050E0BC01DD
:10255000CD010E94761DDA01C9018A839B83AC8379
:10256000BD8389818F5F89838A819B81AC81BD8195
:102570000097A105B10519F731C08981882F90E036
:102580008C0101501040898D9A8DAB8DBC8D2AE055
:1025900030E040E050E0BC01CD010E94761DDC013E
:1025A000CB01282F205DCE010696FC01E00FF11F24
:1025B0002083898D9A8DAB8DBC8D2AE030E040E080
:1025C00050E0BC01CD010E94761DDA01C901898F5E
:1025D0009A8FAB8FBC8F89818150898389818823B1
:1025E00061F6EF89F88D008CF18DE02D8F89988D43
:1025F0009E012A5F3F4FB90109956C960FB6F8947A
:10260000DEBF0FBECDBFCF91DF911F910F91089517
:10261000DF93CF93CDB7DEB729970FB6F894DEBF1F
:102620000FBECDBF9D838C836E834F8339872887F0
:102630001B821A8267C019825CC0E885F985808197
:10264000282F30E08981882F90E0A90102C055959C
:1026500047958A95E2F7CA0181709070882399F0B6
:10266000EC81FD810688F789E02D8C819D816AE2ED
:102670000995EC81FD810688F789E02D8C819D818B
:102680006AE2099512C0EC81FD810688F789E02D88
:102690008C819D8160E20995EC81FD810688F78936
:1026A000E02D8C819D8160E209958A819B81019654
:1026B0009B838A838E81282F30E08A819B81B90198
:1026C0000E94621D009791F4EC81FD810688F789D4
:1026D000E02D8C819D816DE00995EC81FD8106885E
:1026E000F789E02D8C819D816AE0099589818F5F52
:1026F00089838981883008F4A0CF888599850196DF
:10270000998788878E81282F30E08F81882F90E0ED
:10271000AC01249FC001259F900D349F900D112482
:102720009C018A819B818217930708F484CF2996A4
:102730000FB6F894DEBF0FBECDBFCF91DF910895E5
:10274000DF93CF9300D000D0CDB7DEB79A838983D3
:1027500089819A819093BF068093BE06E981FA81B0
:102760008081282F30E03C832B838B819C810097D4
:1027700031F02B813C812130310531F14AC0E981B2
:10278000FA818CE290E090878783E981FA818BE27D
:1027900090E092878187E981FA818AE290E09487CC
:1027A0008387E981FA8185E990E096878587E981C9
:1027B000FA8189E290E0908B8787E981FA8180E94C
:1027C00090E0928B818B49C0E981FA818CE990E09D
:1027D00090878783E981FA818BE990E092878187EE
:1027E000E981FA818AE990E094878387E981FA8117
:1027F0008DE990E096878587E981FA8189E990E003
:10280000908B8787E981FA8188E990E0928B818BB0
:1028100024C0E981FA8187E990E090878783E98184
:10282000FA8187E990E092878187E981FA8187E9D7
:1028300090E094878387E981FA8187E990E0968721
:102840008587E981FA8187E990E0908B8787E98124
:10285000FA8187E990E0928B818BE981FA81A189E5
:10286000B289E981FA818181282F30E0E981FA81FA
:102870008281482F50E0C901880F991F9C01220FC7
:10288000331F220F331F820F931F840F951F880F52
:10289000991FFC01E354FD4F80819181892F992775
:1028A0008C93E981FA81A785B089E981FA818181D8
:1028B000282F30E0E981FA818281482F50E0C90158
:1028C000880F991F9C01220F331F220F331F820F85
:1028D000931F840F951F880F991FFC01E354FD4F30
:1028E000808191818C93E981FA810384F485E02DC4
:1028F00088E18083E981FA818681882341F0E9813A
:10290000FA810384F485E02D808180688083E981E9
:10291000FA81A585B685E981FA818381882F90E0C7
:1029200082959295907F9827807F9827282FE9811C
:10293000FA818581882F90E0880F991F880F991F51
:10294000880F991F282BE981FA818481882F90E0D4
:10295000880F991F822B8C93E981FA810780F0857B
:10296000E02D1082E981FA8180E591E1978B868BD9
:10297000E981FA818AE991E1938F828FE981FA8175
:1029800082E791E1918F808FE981FA8188E093E17C
:10299000978F868FE981FA8180E792E191A380A3E6
:1029A0000F900F900F900F90CF91DF910895DF93CC
:1029B000CF9300D00F92CDB7DEB79A8389836B8314
:1029C000E981FA810380F481E02D8B8180830F906F
:1029D0000F900F90CF91DF910895DF93CF9300D0A8
:1029E0000F92CDB7DEB79A8389836B83E981FA8131
:1029F0000380F481E02D90818B81892380830F9067
:102A00000F900F90CF91DF910895DF93CF9300D077
:102A10000F92CDB7DEB79A8389836B83E981FA8100
:102A20000380F481E02D90818B81892B80830F902E
:102A30000F900F90CF91DF910895DF93CF9300D047
:102A4000CDB7DEB79A838983E981FA810580F68163
:102A5000E02D80810F900F90CF91DF910895DF934B
:102A6000CF9300D000D0CDB7DEB79A838983E981B8
:102A7000FA818081282F30E03C832B838B819C81DD
:102A80008334910509F449C02B813C8124343105FC
:102A90005CF48B819C8181349105C9F02B813C8150
:102AA0002234310539F185C08B819C8185349105B3
:102AB00009F459C02B813C81253431050CF440C008
:102AC0008B819C818634910509F460C072C0E981D4
:102AD000FA8189E390E096838583E981FA818AE32C
:102AE00090E092838183E981FA818BE390E0948383
:102AF000838371C0E981FA8186E390E096838583C0
:102B0000E981FA8187E390E092838183E981FA8108
:102B100088E390E0948383835EC0E981FA8183E354
:102B200090E096838583E981FA8184E390E0928343
:102B30008183E981FA8185E390E0948383834BC0AC
:102B4000E981FA8180E390E096838583E981FA81C7
:102B500081E390E092838183E981FA8182E390E0CE
:102B60009483838338C0E981FA8181E290E096837F
:102B70008583E981FA8182E290E092838183E98111
:102B8000FA8183E290E09483838325C0E981FA810E
:102B900080E290E096838583E981FA8181E690E086
:102BA00092838183E981FA8182E690E09483838332
:102BB00012C0E981FA8186E690E092838183E981FF
:102BC000FA8186E690E096838583E981FA8186E63C
:102BD00090E094838383E981FA810180F281E02D82
:102BE0008FEF8083E981FA810380F481E02D8FEFFC
:102BF0008083E981FA818DE195E194878387E9817A
:102C0000FA8187ED94E192878187E981FA818DEEDF
:102C100094E196878587E981FA8185E095E1908B3B
:102C200087870F900F900F900F90CF91DF910895AD
:102C3000DF93CF9300D00F92CDB7DEB79B838A830B
:102C4000198203C089818F5F89838981282F30E0B1
:102C50008A819B8128173907A8F30F900F900F9056
:102C6000CF91DF910895DF93CF93CDB7DEB785ED98
:102C700095E00E942F15CF91DF910895DF93CF93B8
:102C8000CDB7DEB78AE090E00E94181685ED95E09A
:102C90000E942F15E091E205F091E30585ED95E0A6
:102CA0006FEB0995E091E405F091E50585ED95E080
:102CB00060E109958AE090E00E941816E091E20533
:102CC000F091E30585ED95E06FEE09958AE090E0DF
:102CD0000E941816E091E405F091E50585ED95E078
:102CE00060E10995CF91DF910895DF93CF9300D0F4
:102CF000CDB7DEB78A83E091E405F091E50585ED77
:102D000095E060E2099519822AC08A8188234CF4F3
:102D1000E091E405F091E50585ED95E064E0099525
:102D200008C0E091E205F091E30585ED95E06BEFD9
:102D30000995E091E205F091E30585ED95E06DEFF1
:102D40000995E091E405F091E50585ED95E062E0F7
:102D500009958A81880F8A8389818F5F8983898118
:102D6000883098F20F900F90CF91DF910895DF9304
:102D7000CF9300D0CDB7DEB78A83E091E205F09122
:102D8000E30585ED95E06FED099519822AC08A81EA
:102D900088234CF4E091E405F091E50585ED95E09C
:102DA00064E0099508C0E091E205F091E30585ED46
:102DB00095E06BEF0995E091E205F091E30585ED73
:102DC00095E06DEF0995E091E405F091E50585ED5D
:102DD00095E062E009958A81880F8A8389818F5FF7
:102DE00089838981883098F20F900F90CF91DF917D
:102DF0000895DF93CF9300D000D00F92CDB7DEB708
:102E00009C838B836D831A8221C0198219C08A81A9
:102E1000482F50E08981682F70E02B813C81CA01E6
:102E20009695982F882797958795820F931F860FE1
:102E3000971FFC013A968D81808389818F5F8983FA
:102E40008981882324F78A818F5F8A838A818830E9
:102E5000E0F20F900F900F900F900F90CF91DF91B5
:102E60000895DF93CF9300D000D0CDB7DEB79C8319
:102E70008B831A823CC0EB81FC810680F781E02DB8
:102E80008A8180550995EB81FC810680F781E02DD0
:102E900081E00995EB81FC810680F781E02D80E1DE
:102EA000099519821EC0EB81FC81A481B5818A81BC
:102EB000482F50E08981682F70E02B813C81CA0146
:102EC0009695982F882797958795820F931F860F41
:102ED000971FFC013A968081FD01099589818F5FDA
:102EE000898389818823FCF68A818F5F8A838A811E
:102EF000883008F20F900F900F900F90CF91DF91D4
:102F000008950F931F93DF93CF9300D000D0CDB7D8
:102F1000DEB79A8389836B834C838C8186958695F3
:102F20008695A82FB0E08B81082F10E08C818695C4
:102F300086958695482F50E08B81682F70E0298117
:102F40003A81CA019695982F882797958795820F81
:102F5000931F860F971FFC013A968081482F8C8122
:102F6000882F90E09C012770307081E090E002C0D3
:102F7000880F991F2A95E2F7842B482F29813A81DF
:102F8000CD019695982F882797958795820F931F47
:102F9000800F911FFC013A9640830F900F900F9085
:102FA0000F90CF91DF911F910F9108950F931F9371
:102FB000DF93CF9300D000D0CDB7DEB79A8389835B
:102FC0006B834C838C81982F969596959695A92F17
:102FD000B0E08B81082F10E0492F50E08B81682FE3
:102FE00070E029813A81CA019695982F8827979594
:102FF0008795820F931F860F971FFC013A96808159
:10300000482F8C81882F90E09C012770307081E0E0
:1030100090E002C0880F991F2A95E2F780958423DB
:10302000482F29813A81CD019695982F8827979529
:103030008795820F931F800F911FFC013A96408362
:103040000F900F900F900F90CF91DF911F910F91E4
:103050000895DF93CF93CDB7DEB728970FB6F894D6
:10306000DEBF0FBECDBF9D838C836E834F832887C9
:103070008885805289831B825FC01A8256C0EC818A
:10308000FD81408551858981282F30E0C901880F55
:10309000991F820F931F880F991F9A01280F391FBC
:1030A0008B81882F90E0F901E80FF91F8081282F8C
:1030B00030E08A81882F90E0A90102C0559547959C
:1030C0008A95E2F7CA01817090708823B1F08C81F3
:1030D0009D81FC01E45FFB4F0190F081E02D9E811A
:1030E0008B81392F380F9F818A81292F280F8C815E
:1030F0009D81632F422F099515C08C819D81FC0114
:10310000E25FFB4F0190F081E02D9E818B81392F92
:10311000380F9F818A81292F280F8C819D81632FF1
:10312000422F09958A818F5F8A838A81883008F4CB
:10313000A6CF8B818F5F8B838B81863008F49DCFE8
:1031400028960FB6F894DEBF0FBECDBFCF91DF91AA
:103150000895DF93CF9300D0CDB7DEB79A838983EC
:10316000E981FA810190F081E02D0995E981FA81E8
:103170000280F381E02D0995E981FA810680F781CB
:10318000E02D8EEA0995E981FA810680F781E02D2C
:1031900080E00995E981FA810680F781E02D80E1E0
:1031A0000995E981FA810680F781E02D80E409958F
:1031B000E981FA810680F781E02D81E80995E981AE
:1031C000FA810680F781E02D8FEC0995E981FA817B
:1031D0000680F781E02D81EA0995E981FA81068070
:1031E000F781E02D88EC0995E981FA810680F78165
:1031F000E02D86EA0995E981FA810680F781E02DC4
:1032000088EA0995E981FA810680F781E02D8FE34C
:103210000995E981FA810680F781E02D83ED099512
:10322000E981FA810680F781E02D80E00995E98146
:10323000FA810680F781E02D85ED0995E981FA8113
:103240000680F781E02D80E80995E981FA81068002
:10325000F781E02D89ED0995E981FA810680F781F2
:10326000E02D81EF0995E981FA810680F781E02D53
:103270008AED0995E981FA810680F781E02D82E1E6
:103280000995E981FA810680F781E02D8BED09959A
:10329000E981FA810680F781E02D80E40995E981D2
:1032A000FA810680F781E02D80E20995E981FA81B3
:1032B0000680F781E02D82E00995E981FA81068098
:1032C000F781E02D8DE80995E981FA810680F78183
:1032D000E02D84E10995E981FA810680F781E02DEE
:1032E00084EA0995E981FA810680F781E02D86EA72
:1032F0000995E981FA810680F781E02D8FEA099529
:103300000F900F90CF91DF910895DF93CF9300D06E
:1033100000D000D0CDB7DEB79A8389836B834C830E
:103320003E832D831FC089819A81FC01EE5EFB4F95
:10333000A081B181ED81FE81208189819A816B819B
:103340004C81FD0109958B818A5F8B838B8188235A
:1033500024F41B828C81885F8C838D819E810196F1
:103360009E838D83ED81FE8180818823E1F6269600
:103370000FB6F894DEBF0FBECDBFCF91DF91089599
:10338000EF92FF920F93DF93CF93CDB7DEB72B97DA
:103390000FB6F894DEBF0FBECDBF9D838C836E83C6
:1033A0004F8328870987FB86EA861B821A8273C0AF
:1033B000198268C0EA85FB858081282F30E08981E9
:1033C000882F90E0A90102C0559547958A95E2F7AC
:1033D000CA0181709070882339F18C819D81FC0134
:1033E000E45FFB4F0190F081E02D8885282F30E0CD
:1033F0008A819B81B9010E94621D982F8E81492F7D
:10340000480F8885282F30E08A819B81B9010E946E
:10341000621DCB01982F8F81292F280F8C819D81D0
:10342000642F422F099526C08C819D81FC01E25FAB
:10343000FB4F0190F081E02D8885282F30E08A81B4
:103440009B81B9010E94621D982F8E81492F480FE0
:103450008885282F30E08A819B81B9010E94621DF6
:10346000CB01982F8F81292F280F8C819D81642F6C
:10347000422F09958A819B8101969B838A8389814A
:103480008F5F89838981883008F494CF8A859B85F2
:1034900001969B878A878885282F30E08985882F29
:1034A00090E0AC01249FC001259F900D349F900DAA
:1034B00011249C018A819B818217930708F478CF9D
:1034C0002B960FB6F894DEBF0FBECDBFCF91DF9124
:1034D0000F91FF90EF900895EF92FF920F93DF937B
:1034E000CF93CDB7DEB72B970FB6F894DEBF0FBEE4
:1034F000CDBF9D838C836E834F8328870987FB868E
:10350000EA861B821A8274C0198269C0EA85FB852B
:103510008081482F50E08981282F30E080E890E0BA
:10352000022E02C0959587950A94E2F7842395238D
:10353000009739F18C819D81FC01E45FFB4F019084
:10354000F081E02D8885282F30E08A819B81B901A8
:103550000E94621D982F8E81492F480F8885282F41
:1035600030E08A819B81B9010E94621DCB01982FB6
:103570008F81292F280F8C819D81642F422F0995DF
:1035800026C08C819D81FC01E25FFB4F0190F081A0
:10359000E02D8885282F30E08A819B81B9010E9427
:1035A000621D982F8E81492F480F8885282F30E083
:1035B0008A819B81B9010E94621DCB01982F8F8166
:1035C000292F280F8C819D81642F422F09958A8194
:1035D0009B8101969B838A8389818F5F89838981FF
:1035E000883008F493CF8A859B8501969B878A87CC
:1035F0008885282F30E08985882F90E0AC01249FB2
:10360000C001259F900D349F900D11249C018A814B
:103610009B818217930708F477CF2B960FB6F89407
:10362000DEBF0FBECDBFCF91DF910F91FF90EF9026
:103630000895DF93CF9300D0CDB7DEB79A83898307
:10364000E981FA818DEA93E091878087E981FA81A7
:1036500083E396E191838083E981FA818EE396E1A9
:1036600093838283E981FA8185E796E19583848358
:10367000E981FA8187EB96E19783868389819A8134
:10368000FC01E65FFB4F89EF96E19183808321E89F
:1036900037E189819A81FC01E45FFB4F318320830C
:1036A00089819A81FC01E25FFB4F86ED97E191836E
:1036B000808389819A81FC01E05FFB4F81E397E180
:1036C0009183808389819A81FC01EE5EFB4F89E2C0
:1036D00098E19183808389819A81FC01EC5EFB4FA4
:1036E00085E899E19183808389819A81FC01EA5E72
:1036F000FB4F80EC99E19183808389819A81FC0161
:10370000E85EFB4F8CE69AE191838083E981FA8140
:103710000190F081E02D0995E981FA810280F38121
:10372000E02D099589819A810E94A9180F900F9028
:10373000CF91DF910895DF93CF93FF93EF930F9293
:1037400000905F000F9200905B000F920F931F9309
:103750002F933F934F935F936F937F938F939F9399
:10376000AF93BF931F922F923F924F925F926F92AF
:103770007F928F929F92AF92BF92CF92DF92EF9201
:10378000FF92E091E605E03081F0E0916010F09169
:1037900061108DB79EB791838083A0916210B09124
:1037A0006310A0936010B0936110E1E0E093E60530
:1037B000E0916210F0916310918180818DBF9EBF76
:1037C000FF90EF90DF90CF90BF90AF909F908F9041
:1037D0007F906F905F904F903F902F901F90BF9180
:1037E000AF919F918F917F916F915F914F913F9199
:1037F0002F911F910F910F9000925B000F900092FC
:103800005F000F90EF91FF91CF91DF910895505895
:10381000BB27AA270ED01CC10DD130F012D120F049
:1038200031F49F3F11F41EF402C10EF4E095E7FB62
:10383000F8C0E92F1ED180F3BA1762077307840717
:10384000950718F071F49EF536C10EF4E0950B2E35
:10385000BA2FA02D0B01B90190010C01CA01A001E2
:103860001124FF27591B99F0593F50F4503E68F13D
:103870001A16F040A22F232F342F4427585FF3CF7E
:10388000469537952795A795F0405395C9F77EF44F
:103890001F16BA0B620B730B840BBAF09150A1F098
:1038A000FF0FBB1F661F771F881FC2F70EC0BA0F1E
:1038B000621F731F841F48F4879577956795B795A6
:1038C000F7959E3F08F0B3CF9395880F08F099279E
:1038D000EE0F9795879508950CD0BAC0B2D040F0FE
:1038E000A9D030F021F45F3F19F09BC05111E4C022
:1038F0009EC0BFD098F39923C9F35523B1F3951B0C
:10390000550BBB27AA2762177307840738F09F5F00
:103910005F4F220F331F441FAA1FA9F333D00E2E6F
:103920003AF0E0E830D091505040E695001CCAF7DC
:1039300029D0FE2F27D0660F771F881FBB1F2617A1
:1039400037074807AB07B0E809F0BB0B802DBF0174
:10395000FF2793585F4F2AF09E3F510568F061C0E2
:10396000ABC05F3FECF3983EDCF3869577956795A7
:10397000B795F7959F5FC9F7880F911D9695879525
:1039800097F90895E1E0660F771F881FBB1F621744
:1039900073078407BA0720F0621B730B840BBA0B02
:1039A000EE1F88F7E0950895E89409C097FB3EF470
:1039B00090958095709561957F4F8F4F9F4F99237C
:1039C000A9F0F92F96E9BB279395F69587957795FA
:1039D0006795B795F111F8CFFAF4BB0F11F460FFBA
:1039E0001BC06F5F7F4F8F4F9F4F16C0882311F012
:1039F00096E911C0772321F09EE8872F762F05C026
:103A0000662371F096E8862F70E060E02AF09A95C0
:103A1000660F771F881FDAF7880F9695879597F9B5
:103A2000089597F99F6780E870E060E008959FEF40
:103A300080EC089500240A94161617061806090645
:103A4000089500240A941216130614060506089514
:103A5000092E0394000C11F4882352F0BB0F40F49C
:103A6000BF2B11F460FF04C06F5F7F4F8F4F9F4FDC
:103A7000089557FD9058440F551F59F05F3F71F05E
:103A80004795880F97FB991F61F09F3F79F08795C5
:103A90000895121613061406551FF2CF4695F1DF4E
:103AA00008C0161617061806991FF1CF86957105DE
:103AB000610508940895E894BB2766277727CB0112
:103AC00097F90895AA1BBB1B51E107C0AA1FBB1F92
:103AD000A617B70710F0A61BB70B881F991F5A959A
:103AE000A9F780959095BC01CD010895A1E21A2E09
:103AF000AA1BBB1BFD010DC0AA1FBB1FEE1FFF1F92
:103B0000A217B307E407F50720F0A21BB30BE40BE1
:103B1000F50B661F771F881F991F1A9469F7609528
:103B20007095809590959B01AC01BD01CF010895E2
:043B3000F894FFCF37
:103B3400010909000301000000000000000000006A
:103B44000000000000000000000000000000000071
:103B540000002020637572725F7461736B5F746917
:103B6400643A007461736B20322069732072756E3D
:103B74006E696E6720007461736B203220202020F0
:103B8400202020007461736B332069732072756E7A
:103B94006E696E672020007461736B203320697333
:103BA4002072756E6E696E670049444C450D0A00BB
:103BB4005254535F4F5320537461727465642100EF
:103BC400706C6561736520696E7075742027532766
:103BD40020746F20736174727420525453204F53B5
:103BE4000D0A0000000100020001000300010002B0
:103BF40000010004000100020001000300010002B2
:103C040000010005000100020001000300010002A0
:103C14000001000400010002000100030001000291
:103C2400000100060001000200010003000100027F
:103C34000001000400010002000100030001000271
:103C44000001000500010002000100030001000260
:103C54000001000400010002000100030001000251
:103C6400000100070001000200010003000100023E
:103C74000001000400010002000100030001000231
:103C84000001000500010002000100030001000220
:103C94000001000400010002000100030001000211
:103CA40000010006000100020001000300010002FF
:103CB40000010004000100020001000300010002F1
:103CC40000010005000100020001000300010002E0
:103CD40000010004000100020001000300010002D1
:103CE400000100060101000100BD37863519000CF2
:103CF40000060003000200010001000000000000B3
:103D0400002F0017000B000700050003000200014C
:103D14000001000000330019000C00080006000335
:103D24000002000100010000005F002F0017000FD7
:103D3400000B0007000500030002000100670033C8
:103D440000190010000C0008000600030002000126
:103D540000BF005F002F001F0017000F000B0007BB
:103D64000005000300CF0067003300220019001093
:103D7400000C000800060003001F018F0047002FFD
:103D8400002300170011000B00080005007F01BF8D
:103D9400005F003F002F001F0017000F000B0007FB
:103DA40000A001CF00670044003300220019001076
:103DB400000C000800DF01EF0077004F003B0027F4
:103DC400001D0013000E00090008020301810056C3
:103DD4000040002A00200015000F000A0000000027
:103DE4000000000000002F00000000070007000092
:103DF400147F147F1400242A7F2A1200626408139B
:103E04002300364955225000000503000000001C21
:103E1400224100000041221C000014083E08140046
:103E240008083E0808000000A06000000808080810
:103E340008000060600000002010080402003E51E9
:103E440049453E0000427F4000004261514946001E
:103E54002141454B31001814127F10002745454578
:103E640039003C4A494930000171090503003649CB
:103E740049493600064949291E000036360000002B
:103E840000563600000008142241000014141414D3
:103E940014000041221408000201510906003249AD
:103EA40059513E007C1211127C007F494949360069
:103EB4003E41414122007F4141221C007F49494942
:103EC40041007F09090901003E4149497A007F0800
:103ED40008087F0000417F4100002040413F01006D
:103EE4007F08142241007F40404040007F020C02C2
:103EF4007F007F0408107F003E4141413E007F095E
:103F0400090906003E4151215E007F091929460036
:103F140046494949310001017F0101003F404040C9
:103F24003F001F2040201F003F4038403F006314E3
:103F340008146300070870080700615149454300ED
:103F4400007F41410000552A552A55000041417F18
:103F5400000004020102040040404040400000010F
:103F6400020400002054545478007F48444438002C
:103F7400384444442000384444487F00385454545E
:103F84001800087E0901020018A4A4A47C007F087C
:103F94000404780000447D4000004080847D0000DB
:103FA4007F102844000000417F4000007C04180476
:103FB40078007C0804047800384444443800FC2425
:103FC4002424180018242418FC007C080404080085
:103FD400485454542000043F444020003C404020B6
:103FE4007C001C2040201C003C4030403C00442805
:103FF400102844001CA0A0A07C004464544C441429
:1040040014141414144200000000000076FF000091
:084014000000000000000000A4
:00000001FF
