:100000000C9472000C9493000C9493000C94930045
:100010000C9493000C9493000C9493000C94930014
:100020000C9493000C9493000C9493000C94930004
:100030000C9493000C9493000C9493000C949300F4
:100040000C9493000C9493000C9493000C949300E4
:100050000C942A070C9493000C9493000C94930036
:100060000C9493000C94460A0C9493000C94930007
:100070000C9493000C9493000C9493000C949300B4
:100080000C9493000C9493000C9493000C949300A4
:100090000C94F7090C9493000C9493000C94930027
:1000A0000C9493000C9493000C9493000C94930084
:1000B0000C9493000C9493000C9493000C94930074
:1000C0000C9493000C9493000C9493000C94930064
:1000D0000C9493000C9493000C9493000C94930054
:1000E0000C94930011241FBECFEFD1E2DEBFCDBF31
:1000F00000E00CBF13E0A0E0B2E0EEEBFCE100E0BA
:100100000BBF02C007900D92AA3BB107D9F71CE0C4
:10011000AAEBB3E001C01D92A330B107E1F70E9442
:10012000C7000C945D0E0C940000DF93CF930F92E8
:100130000F92CDB7DEB79C0102C02150304021158F
:10014000310591F01A82198289819A8180579741ED
:10015000A0F789819A8101969A83898389819A81FE
:100160008057974150F7F5CF0F900F90CF91DF91C7
:100170000895E091A602F091A7028EE892E060E077
:1001800072E0199584E690E00E949500089584B18C
:100190008FEF84B915B88EE892E00E94880BE09149
:1001A000A602F091A7028EE892E063E172E0199551
:1001B00089EB90E00E94A8098EEA91E06DE774E077
:1001C00040E850E021E00E943E0888E391E06DEFB6
:1001D00074E040E850E022E00E943E088EE191E0A9
:1001E0006DE775E040E850E023E00E943E0881E0C2
:1001F00090E00E9440099093BB038093BA0309C02A
:10020000E091A602F091A7028EE892E06FE272E020
:100210001995E091A802F091A9028EE892E0199553
:10022000833571F7E091A602F091A7028EE892E083
:100230006FE172E019950E945F09EBCF8091BA03DC
:100240009091BB030E94E408E091A602F091A702FE
:100250008EE892E062E572E019958091BA03909180
:10026000BB030E94960884E690E00E949500E6CFCA
:10027000EF92FF920F931F938091BA039091BB036B
:100280000E94E4080E94CC0622E030E04AE754E4F1
:100290000E94C40D0E940A0D7B018C01E091A60210
:1002A000F091A7028EE892E066E672E0199540911F
:1002B000FD0B5091FE0B6091FF0B7091000CE091D3
:1002C000AE02F091AF028EE892E01995E091A6029D
:1002D000F091A7028EE892E06DE672E01995B70101
:1002E000C80124E630E040E050E00E943B0EAB0144
:1002F000BC01E091AE02F091AF028EE892E0199558
:10030000E091A602F091A7028EE892E067E772E022
:100310001995B701C8012AE030E040E050E00E94A2
:100320003B0EAB01BC01E091AE02F091AF028EE852
:1003300092E01995E091A602F091A7028EE892E072
:1003400069E772E019958091BA039091BB030E940E
:10035000960884E690E00E9495008ECF0F931F933D
:10036000E091A602F091A7028EE892E06DE772E0BC
:1003700019950091AE021091AF020E94C006482F5D
:1003800050E060E070E08EE892E0F8011995E091AD
:10039000A802F091A9028EE892E01995883469F0DC
:1003A000813479F0823489F0833499F08434C1F651
:1003B00083E065E00E949907D3CF83E00E94F907AC
:1003C000CFCF81E00E94F907CBCF83E00E94CE0718
:1003D000C7CF83E061E00E949907C2CF0F931F93BC
:1003E000CF93DF93C091FD05D091FE058091030668
:1003F00090910406019709F44BC000E010E00BC097
:100400000F5F1F4F80910306909104060197081714
:100410001907F0F5EF014C815D81E881F9816E816A
:100420007F819A01260F371F84819581281739070C
:1004300039F75583448386819781860F971F978369
:100440008683AA81BB811196FC93EE93E881F981A2
:10045000B383A28380910D0690910E0699838883C1
:10046000D0930E06C0930D0680911306909114064A
:100470000196909314068093130680910306909141
:10048000040601979093040680930306FE01B8CFFB
:10049000DF91CF911F910F9108952DEF35E0C901A4
:1004A00008969093FE058093FD0590930006809337
:1004B000FF05309306062093050630930806209327
:1004C000070681E090E09093040680930306109263
:1004D00002061092010610920A061092090680E8A0
:1004E00090E090930C0680930B068DE390E0909340
:1004F000140680931306F9017096CF010896918334
:1005000080831782168215821482FC0187E0E53F02
:10051000F80799F717821682158214820895CF93EF
:10052000DF93C091FD05D091FE05609103067091A7
:1005300004066115710521F1AC014E5F5F4F8E819C
:100540009F81880F991F880F991F880F991F841703
:100550009507E0F420E030E00BC08E819F81880F8A
:10056000991F880F991F880F991F8417950770F49A
:100570000990D881C02D2F5F3F4F2617370768F3AA
:10058000E0E0F0E0CF01DF91CF910895CA018770DC
:1005900090700796969587959695879596958795E9
:1005A000569547955695479556954795840F482FEC
:1005B00050E08091010690910206840F951F909360
:1005C0000206809301066C817D81660F771F660F9E
:1005D000771F660F771FFB01E350F84F518340836D
:1005E0002E813F814217530789F08C819D81840FB2
:1005F000951F9D838C83241B350B3F832E83FB012A
:10060000E150F84FCF01DF91CF910895AA81BB81CE
:100610008881998111969C938E93E881F981B383A7
:10062000A28380910D0690910E0699838883D093C2
:100630000E06C0930D068091130690911406019644
:1006400090931406809313068091030690910406FC
:1006500001979093040680930306D1CFCF93DF9345
:10066000FC01B291A2913296C091FD05D091FE0598
:10067000609103067091040661157105F1F0AF01F8
:100680004F5F5740569547955695479556954795D0
:100690008C819D814817590798F020E030E005C013
:1006A0008C819D814817590758F00990D881C02D39
:1006B0002F5F3F4F2617370798F3DF91CF910895AB
:1006C000E0910D06F0910E0620813181558344831F
:1006D000B783A68380910106909102068A1B9B0B2B
:1006E0009093020680930106D183C083A0910D06EA
:1006F000B0910E068A819B8113969C938E931297DC
:10070000EA81FB81B183A08380910D0690910E0652
:100710009B838A83809103069091040601969093AF
:1007200004068093030630930E0620930D068091F5
:100730001306909114060197909314068093130664
:10074000DF91CF9108952091010630910206220F8A
:10075000331F220F331F220F331FC901089582E078
:100760008093810010928500109284008FEF809317
:1007700089008093880016BA8FB78F778FBF08954E
:10078000FB0141505040E40FF51F80839293129279
:100790001292129280E88293129212921292129204
:1007A0001292129212921292129212921292129229
:1007B0001292129212921292129212921292129219
:1007C0001292129212921292129212921292129209
:1007D0001292129212923197CF010895ECEBF3E04E
:1007E0001192119283E0E23DF807D1F71092D20303
:1007F000E5EDF3E0118210821282339683E0EA3E47
:10080000F807C1F787E08093F0038093F1032DEEA2
:1008100033E03093F8032093F7033093F6032093EB
:10082000F5038AEE93E09093F4038093F3033093FF
:10083000EB032093EA031092EC0308958091D40314
:10084000A0EBB2E0FD01E80FF11D208130E0F901DD
:10085000ED52FC4F8081FD01E80FF11D8081220FD8
:10086000331F220F331F220F331F280F311DF901B1
:10087000EE52FC4F8081A80FB11D220F331F220FB3
:10088000331F220F331F8C91820F8093B003089582
:10089000382FE82FE695E695E695F0E0482F50E0F2
:1008A000CA018770907061E070E0DB0102C0AA0F9E
:1008B000BB1F8A95E2F7CD018095EE52FC4F208157
:1008C00082238083882351F532953695369533708F
:1008D000A32FB0E04F7350705595479555954795A8
:1008E00055954795CB0102C0880F991F4A95E2F7AD
:1008F0008095FD01ED52FC4F208182238083882367
:1009000069F4032E02C0660F771F0A94E2F7962F50
:1009100090958091D40389238093D4030895682F00
:1009200070E0E2EDF3E0869586958695E80FF11D7F
:100930009B0127703070A1E0B0E0AD0102C0440F10
:10094000551F2A95E2F79A014081422B40838695F4
:100950008695869590E0FC01ED52FC4F6F737070A8
:100960007595679575956795759567959D0102C015
:10097000220F331F6A95E2F7B9012081262B2083CD
:1009800002C0AA0FBB1F8A95E2F78091D4038A2B7D
:100990008093D4030895DC01ECEBF3E020E030E039
:1009A000422F80819181892B49F04F5F2F5F3F4F0C
:1009B00032962B303105A1F7842F0895F901EE0FFF
:1009C000FF1FE454FC4FB183A08315962C93842F12
:1009D0000895CF93DF93EC016A81262F30E0A901BF
:1009E000440F551FFA01E20FF31FEB52FC4FA08199
:1009F000B181109741F1B987A8871A968D919C9182
:100A00001B979B878A871A96ED91FC911B97D1873C
:100A1000C0871B96DC93CE931A97FA01E20FF31F5F
:100A2000EB52FC4F82818F5F828383E0689FC0011D
:100A300011248B529C4F9F838E83862F0E948F049C
:100A4000DF91CF91089591838083998788879B87D1
:100A50008A87E3CFCF93DF93FC012281822F90E03E
:100A6000EC01CC0FDD1FC80FD91FCB52DC4F8A81A0
:100A70008130C9F08230A0F0808591859983888388
:100A8000A285B3858085918519969C938E9318973E
:100A90000084F185E02DB387A2878A8181508A8303
:100AA000DF91CF91089519821882822F0E94480405
:100AB0001A82DF91CF910895CF93DF93DC012091CB
:100AC000EA033091EB031B963C932E931A978AEE20
:100AD00093E017969C938E931697E90188859985E4
:100AE00019969C938E931897E885F985B387A2870A
:100AF000B987A8878091EC038F5F8093EC03DF9127
:100B0000CF910895FC01A285B385808591851996C2
:100B10009C938E9318970084F185E02DB387A2876C
:100B20008091EC0381508093EC030895FB01A82F82
:100B3000B0E0AA0FBB1FA454BC4F8D919C91918330
:100B400080830895DC018091B00390E0FC01EE0FFA
:100B5000FF1FE80FF91FEB52FC4F808191818D93AD
:100B60009C9308951F920F9200905F000F92009047
:100B70005B000F922F923F924F925F926F927F9203
:100B80008F929F92AF92BF92CF92DF92EF92FF929D
:100B90000F931F932F933F934F935F936F937F9385
:100BA0008F939F93AF93BF93EF93FF93DF93CF9375
:100BB000E091010CF091020C8DB79EB79183808378
:100BC0008091B00390E0FC01EE0FFF1FE80FF91FCA
:100BD000EB52FC4F808191819093020C8093010C29
:100BE0008091B00390E0FC01EE0FFF1FE80FF91FAA
:100BF000EB52FC4F8281823008F434C080916F0048
:100C0000816080936F00E091010CF091020C808173
:100C100091819EBF8DBFCF91DF91FF91EF91BF91E9
:100C2000AF919F918F917F916F915F914F913F9184
:100C30002F911F910F91FF90EF90DF90CF90BF9079
:100C4000AF909F908F907F906F905F904F903F906C
:100C50002F900F9000925B000F9000925F000F901A
:100C60001F90089580916F008E7F80936F00CBCF8F
:100C70008091B00390E0FC01EE0FFF1FE80FF91F19
:100C8000EB52FC4F828108951F920F9200905F00FB
:100C90000F9200905B000F922F923F924F925F92C3
:100CA0006F927F928F929F92AF92BF92CF92DF927C
:100CB000EF92FF920F931F932F933F934F935F9366
:100CC0006F937F938F939F93AF93BF93EF93FF9314
:100CD000DF93CF93E091010CF091020C8DB79EB79A
:100CE00091838083E091010CF091020C80859185C5
:100CF0009093020C8093010CE091010CF091020C96
:100D0000808191819EBF8DBFCF91DF91FF91EF9147
:100D1000BF91AF919F918F917F916F915F914F9113
:100D20003F912F911F910F91FF90EF90DF90CF9007
:100D3000BF90AF909F908F907F906F905F904F90FB
:100D40003F902F900F9000925B000F9000925F00F9
:100D50000F901F9008950E941E040E94B2050895EE
:100D6000CF93DF93EC018091790490917A04892BE1
:100D7000D1F3E0917904F0917A04CE011995F3CF83
:100D8000E091010CF091020C85810895E091010C35
:100D9000F091020C82810895AF92BF92CF92DF92C0
:100DA000EF92FF920F931F936091B2037091B30380
:100DB000E090B403F090B50380E090E00E94360D1F
:100DC0005B016C0100E010E0C801B7010E94360D24
:100DD0009B01AC01C601B5010E94A20C9B01AC01B4
:100DE00068E070E080E89FE30E943D0C6093B603EA
:100DF0007093B7038093B8039093B9038091B603BF
:100E00009091B703A091B803B091B903BC01CD0193
:100E10001F910F91FF90EF90DF90CF90BF90AF9018
:100E2000089500905F000F928FB78F778FBF109259
:100E3000B1030F9000925F00089500905F000F9241
:100E40008FB78F778FBF81E08093B1030F900092AF
:100E50005F0008951F920F920FB60F920BB60F927C
:100E600011242F933F934F935F936F937F938F93AF
:100E70009F93AF93BF93EF93FF938091FD0B90915E
:100E8000FE0BA091FF0BB091000C0196A11DB11DAE
:100E90008093FD0B9093FE0BA093FF0BB093000C7F
:100EA0008091B103813009F441C0E091010CF091CF
:100EB000020C8281863081F18091B4039091B50358
:100EC00001969093B5038093B4038091B4039091FD
:100ED000B503883C910550F081E090E09093B50314
:100EE0008093B4039093B3038093B20385B180954C
:100EF00085B9FF91EF91BF91AF919F918F917F91B4
:100F00006F915F914F913F912F910F900BBE0F907A
:100F10000FBE0F901F9018958091B2039091B3036C
:100F200001969093B3038093B203C6CF0E94440608
:100F3000BCCF1F93DF93CF930F920F92CDB7DEB745
:100F4000162F00905F000F929FB79F779FBFBE0143
:100F50006F5F7F4F0E949605E981FA818281811738
:100F600031F08381883019F0813051F012830F9075
:100F700000925F000F900F90CF91DF911F91089525
:100F8000CF010E942A05E981FA811283CF010E94D4
:100F9000E9040E941E040E94B205E9CFDF93CF93BB
:100FA0000F920F92CDB7DEB700905F000F929FB700
:100FB0009F779FBFBE016F5F7F4F0E949605E981BB
:100FC000FA819381943041F00F9000925F000F906E
:100FD0000F90CF91DF91089581E083839483CF01B7
:100FE0000E94820589819A810E94E9040E94AB06D1
:100FF000EBCFDF93CF930F920F92CDB7DEB7009078
:101000005F000F929FB79F779FBFBE016F5F7F4FBB
:101010000E949605E981FA812381283049F0809168
:10102000010C9091020CE817F907B9F0213041F05A
:101030000F9000925F000F900F90CF91DF91089575
:1010400084E083832483CF010E942A0589819A81C9
:101050000E945C050E94AB06EBCF213049F784E08B
:1010600083832483CF010E942A0589819A810E946B
:101070005C050E941E040E94B205DACFEF92FF9237
:101080000F931F93CF93DF93022F0E94C0037C0125
:1010900000905F000F928FB78F778FBF8CE090E04A
:1010A0000E948F02EC010097C9F00E94CB04182F18
:1010B0008D830A8381E08B8386E08C83F982E882CA
:1010C000CE010E94E9040F9000925F00812FDF9112
:1010D000CF911F910F91FF90EF90089510E0F3CF03
:1010E0000F931F938C0180EB96E069EF73E040E86B
:1010F00050E026E00E943E0810937A0400937904A1
:101100001F910F910895FC0100905F000F928FB71F
:101110008F778FBF77876687E087F187E287F387CE
:10112000158614860F9000925F000895CF93DF9389
:10113000DC0100905F000F928FB78F778FBFE09137
:10114000010CF091020C81E08383E091010CF0919D
:10115000020C88E084831E968D919C911F970196C6
:101160001F969C938E931E971816190634F40F90B1
:1011700000925F00DF91CF9108951C968D919C9114
:101180001D97009779F4C0E0D0E0CE010E94E904F9
:101190000E941E040E94B2050F9000925F00DF9132
:1011A000CF9108951896CD91DC911997E885F9852E
:1011B000B387A2871996FC93EE93189701971D9613
:1011C0009C938E931C97E1CFCF93DF93EC0100901B
:1011D0005F000F928FB78F778FBFE091010CF09176
:1011E000020C88E08383E091010CF091020C81E015
:1011F00084838E859F8501979F878E8797FD06C084
:101200000F9000925F00DF91CF9108958091010CC3
:101210009091020C0E942A05A091010CB091020C41
:101220008A859B851B969C938E931A971996DC93BF
:10123000CE931897EA85FB85B187A087BB87AA87DD
:101240008C859D8501969D878C870E941E040E9437
:10125000B2050F9000925F00DF91CF9108959C013D
:1012600000905F000F928FB78F778FBF21153105E8
:1012700019F0C9010E942E030F9000925F0008959B
:10128000CF93DF93EC0100905F000F928FB78F77C1
:101290008FBF80E190E00E948F02FC01009741F037
:1012A000808791878287938715861486D787C6871C
:1012B0000F9000925F00CF01DF91CF9108950E94BF
:1012C0001E0481E09CE00E94A2050E943806823044
:1012D00008F438C080916F00816080936F00E091C6
:1012E000010CF091020C808191819EBF8DBFCF9146
:1012F000DF91FF91EF91BF91AF919F918F917F917E
:101300006F915F914F913F912F911F910F91FF909E
:10131000EF90DF90CF90BF90AF909F908F907F9095
:101320006F905F904F903F902F900F9000925B00D6
:101330000F9000925F000F901F9008958FB7806804
:101340008FBF089580916F008E7F80936F00C7CF0D
:101350000F931F938C018FB78F778FBF0E944D0221
:101360000E94AF030E94EE03C8010E947008109211
:10137000FD0B1092FE0B1092FF0B1092000C1F91B0
:101380000F910895DC011996ED91FC911A978081D7
:1013900085FFF9CF1796ED91FC911897608308951A
:1013A0000F931F93CF93DF938C01EB01688166232A
:1013B00059F02196D8015696ED91FC915797C801A6
:1013C000199568816623A9F7DF91CF911F910F913D
:1013D0000895DC011996ED91FC911A97808187FFA1
:1013E000F9CF1796ED91FC911897808108951F927F
:1013F0000F920FB60F920BB60F9211242F933F93BB
:101400004F935F936F937F938F939F93AF93BF930C
:10141000EF93FF93E0917B04F0917C040780F085CB
:10142000E02D9081E0917B04F0917C048389891701
:1014300001F1A0917B04B0917C045496ED91FC9154
:10144000559791935596FC93EE935497FF91EF9196
:10145000BF91AF919F918F917F916F915F914F91CC
:101460003F912F910F900BBE0F900FBE0F901F90CA
:101470001895E0917B04F0917C04048CF58DE02DAF
:1014800080917B0490917C041995E0CF1F920F927C
:101490000FB60F920BB60F9211242F933F934F93D9
:1014A0005F936F937F938F939F93AF93BF93EF93CC
:1014B000FF93E0917B04F0917C040780F085E02DA0
:1014C0009081E0917B04F0917C048389891701F17C
:1014D000A0917B04B0917C045496ED91FC915597BA
:1014E00091935596FC93EE935497FF91EF91BF9192
:1014F000AF919F918F917F916F915F914F913F91AC
:101500002F910F900BBE0F900FBE0F901F9018954C
:10151000E0917B04F0917C04048CF58DE02D8091AA
:101520007B0490917C041995E0CF8F929F92AF92AB
:10153000BF92CF92DF92EF92FF920F93DF93CF9300
:10154000CDB7DEB763970FB6F894DEBF0FBECDBF41
:101550005C016A017B01BA01C7012AE030E040E08A
:1015600050E00E943B0EC901DA019C01AD014E0121
:101570000894811C911C81E1D4011D928A95E9F7A0
:10158000211531054105510509F44CC001E0CA019E
:10159000B9012AE030E040E050E00E943B0EC90172
:1015A000DA019C01AD010F5F21153105410551059F
:1015B00071F70023E9F0FE01E00FF11DFB8BEA8BD0
:1015C000B601C7012AE030E040E050E00E943B0E47
:1015D000605DAA89BB896C93B601C7012AE030E03F
:1015E00040E050E00E943B0E69017A01015019F77A
:1015F000D5015896ED91FC915997C501B401199503
:1016000063960FB6F894DEBF0FBECDBFCF91DF91CA
:101610000F91FF90EF90DF90CF90BF90AF909F9091
:101620008F90089501E0C7CF6F927F929F92AF9203
:10163000BF92CF92DF92EF92FF920F931F93CF93BF
:10164000DF93EC01962E6901469F3001112461144D
:10165000710409F44FC0AA24BB24750100E010E016
:1016600019C0EE89FF89CE016AE21995EE89FF89DA
:10167000CE016AE219950894E11CF11CC701692D9D
:1016800070E00E94270E892BD9F00F5F1F4F0830A2
:10169000110529F1F601808190E0002E02C0959598
:1016A00087950A94E2F780FDDCCFEE89FF89CE01B1
:1016B00060E21995EE89FF89CE0160E21995DBCFD2
:1016C000EE89FF89CE016DE01995EE89FF89CE0183
:1016D0006AE019950F5F1F4F08301105D9F688E0B1
:1016E00090E0A80EB91EA614B70420F40894C11CFB
:1016F000D11CB3CFDF91CF911F910F91FF90EF904D
:10170000DF90CF90BF90AF909F907F906F900895A3
:10171000DC0190937C0480937B048C91882309F0F6
:101720006AC086EC90E018969C938E93179780EC95
:1017300090E01A969C938E93199781EC90E01C96FA
:101740009C938E931B9782EC90E01E969C938E93B5
:101750001D9784EC90E050969C938E931F9785EC98
:1017600090E052969C938E9351975196ED91FC91F7
:10177000529710821F96ED91FC91509788E08083DC
:101780001B96ED91FC911C9788E180831D96ED914D
:10179000FC911E9715968C911597880F880F880FCE
:1017A00013969C9113979295907F982B14968C91F9
:1017B0001497880F892B808382EC99E057969C932D
:1017C0008E93569789EE99E05B969C938E935A97E9
:1017D00080ED99E059969C938E93589784E19BE015
:1017E0005F969C938E935E9785E99AE091969C9381
:1017F0008E93909708958130D9F087E990E01896FC
:101800009C938E9317971A969C938E9319971C9678
:101810009C938E931B971E969C938E931D97509628
:101820009C938E931F9752969C938E9351979DCF26
:101830008EEC90E018969C938E93179788EC90E02E
:101840001A969C938E93199789EC90E01C969C9322
:101850008E931B978AEC90E01E969C938E931D9717
:101860008CEC90E050969C938E931F978DEC90E0BB
:1018700052969C938E93519778CF5058BB27AA27A6
:101880000ED048C139D130F03ED120F031F49F3F25
:1018900011F41EF42EC10EF4E095E7FB24C1E92FEC
:1018A0004AD180F3BA17620773078407950718F0C7
:1018B00071F49EF562C10EF4E0950B2EBA2FA02DA7
:1018C0000B01B90190010C01CA01A0011124FF27ED
:1018D000591B99F0593F50F4503E68F11A16F040E8
:1018E000A22F232F342F4427585FF3CF46953795E7
:1018F0002795A795F0405395C9F77EF41F16BA0BAC
:10190000620B730B840BBAF09150A1F0FF0FBB1F59
:10191000661F771F881FC2F70EC0BA0F621F731FA2
:10192000841F48F4879577956795B795F7959E3FFF
:1019300008F0B3CF9395880F08F09927EE0F97958D
:10194000879508950CD0E6C0DED040F0D5D030F0B9
:1019500021F45F3F19F0C7C0511110C1CAC0EBD0CC
:1019600098F39923C9F35523B1F3951B550BBB2766
:10197000AA2762177307840738F09F5F5F4F220F13
:10198000331F441FAA1FA9F333D00E2E3AF0E0E80C
:1019900030D091505040E695001CCAF729D0FE2F58
:1019A00027D0660F771F881FBB1F261737074807EA
:1019B000AB07B0E809F0BB0B802DBF01FF279358A0
:1019C0005F4F2AF09E3F510568F08DC0D7C05F3F42
:1019D000ECF3983EDCF3869577956795B795F79588
:1019E0009F5FC9F7880F911D9695879597F9089580
:1019F000E1E0660F771F881FBB1F6217730784071C
:101A0000BA0720F0621B730B840BBA0BEE1F88F72A
:101A1000E095089598D088F09F5790F0B92F9927B6
:101A2000B751A0F0D1F0660F771F881F991F1AF0E9
:101A3000BA95C9F712C0B13081F09FD0B1E00895D6
:101A40009CC0672F782F8827B85F39F0B93FCCF357
:101A5000869577956795B395D9F73EF490958095DF
:101A6000709561957F4F8F4F9F4F0895E89409C0FF
:101A700097FB3EF490958095709561957F4F8F4FC1
:101A80009F4F9923A9F0F92F96E9BB279395F695D7
:101A9000879577956795B795F111F8CFFAF4BB0F55
:101AA00011F460FF1BC06F5F7F4F8F4F9F4F16C0B9
:101AB000882311F096E911C0772321F09EE8872F43
:101AC000762F05C0662371F096E8862F70E060E0FF
:101AD0002AF09A95660F771F881FDAF7880F969578
:101AE000879597F9089597F99F6780E870E060E01F
:101AF00008959FEF80EC089500240A9416161706A7
:101B000018060906089500240A94121613061406EE
:101B100005060895092E0394000C11F4882352F051
:101B2000BB0F40F4BF2B11F460FF04C06F5F7F4F09
:101B30008F4F9F4F089557FD9058440F551F59F0F0
:101B40005F3F71F04795880F97FB991F61F09F3FAA
:101B500079F087950895121613061406551FF2CFD3
:101B60004695F1DF08C0161617061806991FF1CF23
:101B700086957105610508940895E894BB2766274A
:101B80007727CB0197F908950BD0C4CFB5DF28F0A4
:101B9000BADF18F0952309F0A6CFABCF1124EECF12
:101BA000CADFA0F3959FD1F3950F50E0551F629FB8
:101BB000F001729FBB27F00DB11D639FAA27F00DA6
:101BC000B11DAA1F649F6627B00DA11D661F829FCD
:101BD0002227B00DA11D621F739FB00DA11D621FB2
:101BE000839FA00D611D221F749F3327A00D611DCF
:101BF000231F849F600D211D822F762F6A2F1124B1
:101C00009F5750408AF0E1F088234AF0EE0FFF1F03
:101C1000BB1F661F771F881F91505040A9F79E3F3A
:101C2000510570F060CFAACF5F3FECF3983EDCF334
:101C3000869577956795B795F795E7959F5FC1F777
:101C4000FE2B880F911D9695879597F90895AA1BED
:101C5000BB1B51E107C0AA1FBB1FA617B70710F097
:101C6000A61BB70B881F991F5A95A9F780959095C9
:101C7000BC01CD010895A1E21A2EAA1BBB1BFD01D8
:101C80000DC0AA1FBB1FEE1FFF1FA217B307E4075B
:101C9000F50720F0A21BB30BE40BF50B661F771FB3
:101CA000881F991F1A9469F7609570958095909593
:0E1CB0009B01AC01BD01CF010895F894FFCF58
:101CBE0049444C452069732072756E6E696E6721BA
:101CCE002020005254532053746172740D0A005236
:101CDE0054535F4F532053746172746564210070C6
:101CEE006C6561736520696E7075742027532720AB
:101CFE00746F20736174727420525453204F530DBD
:101D0E000A007461736B332069732072756E6E698D
:101D1E006E67212020007469636B733A004350553F
:101D2E0020526174653A002E002520200020206389
:101D3E007572725F7461736B5F7469643A00000947
:101D4E000900030100000000000000000000000078
:101D5E000000000000000000000000000000000075
:101D6E00000001000200010003000100020001005A
:101D7E000400010002000100030001000200010046
:101D8E000500010002000100030001000200010035
:101D9E000400010002000100030001000200010026
:101DAE000600010002000100030001000200010014
:101DBE000400010002000100030001000200010006
:101DCE0005000100020001000300010002000100F5
:101DDE0004000100020001000300010002000100E6
:101DEE0007000100020001000300010002000100D3
:101DFE0004000100020001000300010002000100C6
:101E0E0005000100020001000300010002000100B4
:101E1E0004000100020001000300010002000100A5
:101E2E000600010002000100030001000200010093
:101E3E000400010002000100030001000200010085
:101E4E000500010002000100030001000200010074
:101E5E000400010002000100030001000200010065
:0A1E6E00060101000100BD378635B2
:00000001FF
