:020000040800F2
:1000000000C00020BD0B0008590B00085D0B000864
:10001000610B0008650B0008690B00080000000078
:100020000000000000000000000000006D0B000850
:10003000710B000800000000750B00086108000843
:10004000050C0008050C0008050C0008050C00084C
:10005000050C0008050C0008050C0008050C00083C
:10006000050C0008050C0008050C0008050C00082C
:10007000050C0008050C0008050C0008050C00081C
:10008000050C0008050C0008050C0008050C00080C
:10009000050C0008050C0008050C0008050C0008FC
:1000A000050C0008050C0008050C0008050C0008EC
:1000B000050C0008050C0008050C0008050C0008DC
:1000C000050C0008050C0008050C0008050C0008CC
:1000D000050C0008DD090008050C0008050C0008E7
:1000E000050C0008050C0008050C000800000000C5
:1000F0000000000000000000000000000000000000
:0C01000000000000000000005FF808F1A3
:10010C0010B5054C237833B9044B13B10448AFF345
:10011C0000800123237010BD10000020000000009F
:10012C000C01000808B5034B1BB103490348AFF39E
:10013C00008008BD00000000140000200C01000825
:10014C0030B400244FF41F053A4B3B4A196882B077
:10015C0041F001011960596818460A405A601A6842
:10016C0022F0847222F480321A601A6822F48022FF
:10017C001A605A6822F4FE025A609D600094019441
:10018C001A6842F480321A6003E0009BB3F5A06F4A
:10019C0009D0036803F400330193009B01330093EF
:1001AC00019B002BF1D0234B1B6813F4003318BFB9
:1001BC0001230193019B012B06D04FF000621F4BD2
:1001CC009A6002B030BC70471D491A4B08681A4639
:1001DC0040F010000860086820F003000860086810
:1001EC0040F00200086059685960596859605968B4
:1001FC0041F480615960596821F47C115960596847
:10020C0041F4E8115960196841F080711960136864
:10021C009B01FCD55368074923F0030353605368D3
:10022C0043F0020353604B6803F00C03082BFAD124
:10023C00C3E700BF001002400000FFF800ED00E033
:10024C0000200240002170B4154B03F12C0243F83E
:10025C00041B9342FBD100221248134B017003F193
:10026C0038011A601A7108339942FAD107204FF0FD
:10027C00FF360E490E4B0F4D0F4C4871887158715B
:10028C009871C1E9022529602A71C3E902642360CF
:10029C002271C1E9041170BCC3E90433704700BF7B
:1002AC0094000020540000205C000020C0000020BE
:1002BC002C0000204C0000204400002010B4094BFE
:1002CC00094A1B780949D35C094CC85C0949105C84
:1002DC0000EBC303E05C105C00EBC300C0B2087021
:1002EC0010BC704759000020500C0008580000202A
:1002FC00540000200000002030B401240F4DC3082E
:10030C00EA5C00F0070104FA01F122EA0102EA5466
:10031C008AB90B4980090A5C03F0070304FA03F35A
:10032C0022EA03030B5433B9064B04FA00F01C7891
:10033C0024EA0000187030BC704700BF5400002045
:10034C0058000020590000200123F0B40C4FC408C1
:10035C003A5D810900F007000A4E0B4D03FA00F0DC
:10036C001043385504F007022878745C03FA02F243
:10037C008B402243034372542B70F0BC704700BF78
:10038C0054000020580000205900002030B4094CC3
:10039C0005462246002352F8041BD8B229B101337A
:1003AC000B2BF8D1184630BC704744F82350E87139
:1003BC0030BC70479400002010B403460C4A0079FE
:1003CC0052F8301071B14C69C3E904144C692361C3
:1003DC004B6102EBC00211790131117110BCDA6072
:1003EC00FFF7B2BF42F83030C3E90433F1E700BF86
:1003FC005C00002070B50D49027901EBC204237931
:10040C00012B0AD008D9D0E9046541F832602E617D
:10041C000269013B5561237170BD0025104641F8FE
:10042C003250FFF769FF257170BD00BF5C000020E2
:10043C0070B41C4D1C4E2968826833792C681144A9
:10044C0001338C42337133680ED95979072927D07F
:10045C001A4691682C68091B916012695179072919
:10046C00F7D1816800222A609A6891420DD31B69EA
:10047C009A688A42FBD95A69C0E904325A691061F8
:10048C005861C0E9021670BC70475A693060C0E907
:10049C0004325A6910615861C0E9021670BC704789
:1004AC001146DFE7080300204400002010B4054C7F
:1004BC00416923790269013B0A612371516110BCC6
:1004CC00704700BF44000020014B1860704700BF0C
:1004DC0044000020014B1B6803607047440000205F
:1004EC00034A044B127853F832300360704700BF54
:1004FC00000000205C000020034B044A1978044BD8
:10050C0052F831201A607047000000205C00002077
:10051C0010030020024A034B126812691A607047DC
:10052C000C03002010030020012130B400234FF4F1
:10053C0000753D240D481A46C0E90400C16000F165
:10054C001001C0E9001183608361C561C46200F1D0
:10055C00300300F5806143F8103C43E9022210336C
:10056C008B42F8D1C0E9FE2230BC70471403002046
:10057C00F0B4224DEC682A68002C3CD00430D368CF
:10058C0080B2B0EBC30F0DD9002303E0D168B0EB00
:10059C00C10F07D901339BB2A3421268F6D30020D6
:1005AC00F0BC704700F00703A968C008073300EBE4
:1005BC00D3031944A96096681148F10040F836300D
:1005CC00D66804319E4207D09468F61A2344C2E9D7
:1005DC0002360844F0BC7047D2E90067EB6A3E6013
:1005EC001668013C77602E6A013316600844EC6093
:1005FC002A62EB62EEE72046D2E700BF140300202C
:10060C001407002010B5044672B6FFF78DFF00F0FA
:10061C0023F8FFF717FE204600F0E6F80022014B06
:10062C001A6010BD08030020084C08B5FFF746FE01
:10063C002046FFF755FF2268054B1A6062B6054A43
:10064C00536843F080535360FEE700BF1003002053
:10065C000C03002000ED00E030B40021F024072250
:10066C00054B064D06485D6080F8234099601A6082
:10067C0072B630BC704700BF10E000E0FEFFEF0028
:10068C0000ED00E001EB820210B400234FF0807407
:10069C00114642E9020442E9043342E9063342E9D5
:1006AC00083342E90A3342E90C3342E90E3342F88B
:1006BC003C3C41F8403D084610BC704710B5044620
:1006CC0072B61C20FFF754FF20B10023C0E90400D0
:1006DC004483038362B610BD38B572B6082101227B
:1006EC00114D2B6859712B689A71438B013B1BB2CE
:1006FC00002B438306DB62B60C4A536843F08053ED
:10070C00536038BD04462868FFF774FE228B2B68B3
:10071C0061690132C3E904410B6163612283FFF714
:10072C00CDFDFFF7E9FEE6E71003002000ED00E049
:10073C0010B572B601240822114B19684C711B6854
:10074C009A71438B23441BB2002B438306DD62B6A4
:10075C000C4A536843F08053536010BD038B6BB14C
:10076C000269013B11694861038301611046FFF77F
:10077C0023FEFFF7A3FDFFF7BFFEE8E71A46F5E7F8
:10078C001003002000ED00E0054608B5054C236879
:10079C00002BFCD02368284698472368002BF9D1FE
:1007AC00F5E700BFD8020020F8B51F46FFF76AFF37
:1007BC00064672B61820FFF7DBFE044678B1FFF749
:1007CC00E5FD01220623E071054627712660627162
:1007DC00A3712046FFF7F0FD62B62846F8BD05462A
:1007EC0062B62846F8BD00BF10B504460623802229
:1007FC0003490448FFF7D8FF034B1C6010BD00BF32
:10080C00D800002095070008D8020020012800D845
:10081C00704710B572B60D4C236898602068FFF7CE
:10082C00E9FD2068FFF704FE01210222236899717B
:10083C0023685A71FFF742FDFFF75EFE62B6044A69
:10084C00536843F08053536010BD00BF1003002069
:10085C0000ED00E02C4A2DE9F041D3682B4DDB4331
:10086C00D3602B682A4901332B600C7882B0E4B238
:10087C00012C18D0274B1B681B79062B04D1264A58
:10088C00138801339BB21380244A138801339BB223
:10089C0013801388C72B03D901231F4913800B80A6
:1008AC0002B0BDE8F081FFF735FE01A8FFF712FE9C
:1008BC00019B29689A688A4205D0194A536843F00B
:1008CC0080535360D6E729688A421BD14FF0000849
:1008DC0002271846C3F808801E69FFF7E7FD019848
:1008EC0044718771FFF768FDB1682A6801969142DF
:1008FC003346EED03046FFF7E7FDFFF7DFFCFFF79E
:10090C00FBFDDAE71E46F5E7001401400803002062
:10091C00060000201003002004000020020000202C
:10092C0000ED00E01D4B70B420249A694FF41C7547
:10093C0042F4804242F004029A61DA684FF6FF00FA
:10094C0042F48042DA60D968154A21F48041D960BA
:10095C005168A3F5584321F47F6151605168114EE1
:10096C0041F40B6151609A8942F400529A81998941
:10097C0041F004019981998921439981998941F028
:10098C00080199811D81F268074B08490240134305
:10099C00F36081F825434C6070BC70470010024036
:1009AC000008014000ED00E00001FA0500E100E064
:1009BC0003784BB1054A9BB2938013885B06FCD538
:1009CC0010F8013F002BF6D1704700BF00380140F2
:1009DC000B4A10B413880B4C9B0621780A4805D59A
:1009EC009388DBB2435413889B06F9D4002301315E
:1009FC00C9B228292170435400D1237010BC704710
:100A0C000038014004030020DC02002000B510482F
:100A1C0083B0FFF7CDFF00220092009BB3F57A7FE5
:100A2C0013DA0192019BB3F57A7F07DA00BF019BC1
:100A3C0001330193019BB3F57A7FF7DB009B013304
:100A4C000093009BB3F57A7FEBDB03B05DF804FBFE
:100A5C00500D000808B5074C074D2068FFF73CFE09
:100A6C002846FFF7A5FF2068FFF762FE0A20FFF774
:100A7C00CDFEF2E7181700209C0D000808B5074CB6
:100A8C00074D2068FFF728FE2846FFF791FF2068E6
:100A9C00FFF74EFE0A20FFF7B9FEF2E71817002009
:100AAC00B00D0008FF201D4908B58A691C4B42F0A7
:100ABC0020028A611A6822F470621A601A6842F481
:100ACC0080721A60D860FFF72DFF1648FFF770FF91
:100ADC001548FFF797FD02234FF400721349144891
:100AEC00FFF762FE90B102234FF4007211491248D5
:100AFC00FFF75AFE70B1FF22104B01201A60FFF76E
:100B0C00DDFD0F4B1860FFF78FFDFEE70D48FFF77B
:100B1C004FFFE8E70C48FFF74BFFECE700100240F3
:100B2C0000140140680D0008190A00082017002065
:100B3C00610A0008201F0020890A000822ED00E04D
:100B4C0018170020740D0008880D0008704700BFAE
:100B5C00FEE700BFFEE700BFFEE700BFFEE700BFF9
:100B6C00704700BF704700BF0D490A6842F0004251
:100B7C000A600C4B1B680C490A6872B12DE9F00F26
:100B8C000A490968EFF308820A6008490B601B6880
:100B9C0083F30888BDE8F00F704701220A60F6E77E
:100BAC0004ED00E010030020070000200C030020DF
:100BBC00002103E00B4B5B58435004310A480B4BAC
:100BCC0042189A42F6D30A4A02E0002342F8043B48
:100BDC00084B9A42F9D3FFF7B3FA00F00FF8FFF77E
:100BEC0061FF7047E80D0008000000200C00002099
:100BFC001000002020270020FEE7000070B5002622
:100C0C000C4D0D4C641BA410A64209D100F0D6F873
:100C1C0000260A4D0A4C641BA410A64205D170BDD7
:100C2C0055F8043B98470136EEE755F8043B9847D6
:100C3C000136F2E7E00D0008E00D0008E00D0008B9
:100C4C00E40D000800000100020001000300010097
:100C5C000200010004000100020001000300010079
:100C6C000200010005000100020001000300010068
:100C7C000200010004000100020001000300010059
:100C8C000200010006000100020001000300010047
:100C9C000200010004000100020001000300010039
:100CAC000200010005000100020001000300010028
:100CBC000200010004000100020001000300010019
:100CCC000200010007000100020001000300010006
:100CDC0002000100040001000200010003000100F9
:100CEC0002000100050001000200010003000100E8
:100CFC0002000100040001000200010003000100D9
:100D0C0002000100060001000200010003000100C6
:100D1C0002000100040001000200010003000100B8
:100D2C0002000100050001000200010003000100A7
:100D3C000200010004000100020001000300010098
:100D4C000200010069646C65207461736B20697327
:100D5C002072756E6E696E672020200052545320ED
:100D6C0053746172740D0A007461736B3220637278
:100D7C0065617465206661696C0D0A007461736B42
:100D8C003320637265617465206661696C0D0A00BD
:100D9C005441534B322049532052554E4E494E47E5
:100DAC00202020007461736B3320206973207275CE
:100DBC006E6E696E6720202000000000F8B500BF41
:100DCC00F8BC08BC9E467047F8B500BFF8BC08BC20
:040DDC009E46704778
:040DE00031010008D5
:040DE4000D010008F5
:0C0DE800060001000100010000000000F6
:0400000508000BBD27
:00000001FF
